:100000000C942A000C9414020C9414020C94140204
:100010000C9414020C9414020C9414020C94140208
:100020000C9414020C9414020C9414020C941402F8
:100030000C9414020C9414020C9414020C941402E8
:100040000C9414020C9414020C9414020C941402D8
:100050000C94140211241FBECFE5D8E0DEBFCDBF43
:0C0060000E945D010C94FF01F894FFCF9A
:10006C00843008F072C0683008F06FC0423008F07D
:10007C006CC0813001F130F08230B1F1833009F481
:10008C004CC00895413059F42AB381E090E002C08D
:10009C00880F991F6A95E2F7822B8ABB08952AB3C1
:1000AC0081E090E002C0880F991F6A95E2F7809575
:1000BC0082238ABB0895413059F427B381E090E044
:1000CC0002C0880F991F6A95E2F7822B87BB0895AF
:1000DC0027B381E090E002C0880F991F6A95E2F780
:1000EC008095822387BB0895413059F424B381E075
:1000FC0090E002C0880F991F6A95E2F7822B84BBAF
:10010C00089524B381E090E002C0880F991F6A958E
:10011C00E2F78095822384BB0895413059F421B3D2
:10012C0081E090E002C0880F991F6A95E2F7822B5C
:10013C0081BB089521B381E090E002C0880F991F24
:0C014C006A95E2F78095822381BB08953C
:10015800843008F072C0683008F06FC0423008F090
:100168006CC0813001F130F08230B1F1833009F494
:100178004CC00895413059F42BB381E090E002C09F
:10018800880F991F6A95E2F7822B8BBB08952BB3D2
:1001980081E090E002C0880F991F6A95E2F7809588
:1001A80082238BBB0895413059F428B381E090E055
:1001B80002C0880F991F6A95E2F7822B88BB0895C1
:1001C80028B381E090E002C0880F991F6A95E2F792
:1001D8008095822388BB0895413059F425B381E086
:1001E80090E002C0880F991F6A95E2F7822B85BBC1
:1001F800089525B381E090E002C0880F991F6A95A1
:10020800E2F78095822385BB0895413059F422B3E3
:1002180081E090E002C0880F991F6A95E2F7822B6F
:1002280082BB089522B381E090E002C0880F991F35
:0C0238006A95E2F78095822382BB08954E
:1002440041E060E081E00E94360041E061E081E04D
:100254000E94360041E062E081E00E9436006FEFC8
:1002640080E00E94CA012FEB8AED90E0215080408B
:100274009040E1F700C0000088E30E94AA0125E84D
:100284002A95F1F700008FE00E94AA0185E88A957B
:10029400F1F7000081E00E94AA018FE99FE0019735
:1002A400F1F700C0000086E00E94AA0195E89A9543
:0602B400F1F700000895BF
:1002BA000E942201D1E0C0E01FC061E06D0F8C2FC7
:1002CA000E94F2018FEC97E00197F1F700C000005D
:1002DA0088E40E94840189E40E9484019FEF24E358
:1002EA008CE0915020408040E1F700C000000E945D
:0E02FA000A0281E0D827CF5FC031F8F2DCCFD6
:10030800CF93C82F41E060E081E00E94AC0040E05C
:1003180061E081E00E94AC006C2F80E00E94E00167
:1003280041E062E081E00E94AC0082E08A95F1F74A
:1003380000C040E062E081E00E94AC008FEC97E0F2
:0C0348000197F1F700C00000CF9108956C
:10035400CF93C82F40E060E081E00E94AC0040E011
:1003640061E081E00E94AC006C2F80E00E94E0011B
:1003740041E062E081E00E94AC0082E08A95F1F7FE
:1003840000C040E062E081E00E94AC00CF9108959B
:10039400843098F4813049F028F0823049F0833079
:1003A40051F008958FEF8ABB08958FEF87BB0895AE
:0C03B4008FEF84BB08958FEF81BB08958C
:1003C000843078F4813041F028F0823039F0833085
:1003D00039F008956BBB089568BB089565BB089517
:0403E00062BB08955F
:1003E400613019F0623029F0089580580E94AA0102
:0A03F400089580540E94AA010895A4
:1003FE00EC010E9419020E941802CE010E941A02FC
:06040E00CE010E9416025F
:1004140081E00E94AA018FE99FE00197F1F700C0F3
:040424000000089537
:040428000C94000030
:04042C000E943400F6
:0204300008952D
:0204320008952B
:02043400089529
:00000001FF
