:100000000C9433000C947B050C947B050C947B05BD
:100010000C942B040C9402040C94D9030C94B0039C
:100020000C9487030C945E030C9435030C940C031E
:100030000C947B050C947B050C947B050C947B0540
:100040000C947C020C947B050C947B050C947B0532
:100050000C947B05006000808000800084000B0C05
:100060000084008D800011241FBECFE5D8E0DEBFE4
:10007000CDBFE4E5F0E040E017C0B591A591359122
:100080002591059107FD0CC095918591EF01F92F00
:10009000E82F05900D92A217B307D9F7FE0104C00F
:1000A0001D92A217B307E1F7E536F40731F70E9476
:0A00B000DE020C944B05F894FFCF1C
:1000BA008F929F92AF92BF92CF92DF92EF92FF926E
:1000CA001F93CF93DF93CDB7DEB72A970FB6F89475
:1000DA00DEBF0FBECDBF6B017C0160E070E0CB01DB
:1000EA0010E025C0DC01CB01880F991FAA1FBB1F96
:1000FA004C015D01880C991CAA1CBB1C880C991C1C
:10010A00AA1CBB1C880E991EAA1EBB1EC701B601DB
:10011A002AE030E040E050E00E947A04680D791D40
:10012A008A1D9B1DC22ED32EE42EF52E1F5FC114ED
:10013A00D104E104F104B1F6F12C13C02AE030E055
:10014A0040E050E00E947A04E1E0F0E0EC0FFD1F8D
:10015A00EC0DFD1D605D6083622F732F842F952F38
:10016A00F394CF2C0F2C000CDD08212F30E0C2169F
:10017A00D30624F3BE016F5F7F4FFB01E20FF31F2B
:10018A00108280E80E94BC042A960FB6F894DEBF5B
:10019A000FBECDBFDF91CF911F91FF90EF90DF90FF
:0C01AA00CF90BF90AF909F908F90089571
:1001B600843008F072C0683008F06FC0423008F032
:1001C6006CC0813001F130F08230B1F1833009F436
:1001D6004CC00895413059F42AB381E090E002C042
:1001E600880F991F6A95E2F7822B8ABB08952AB376
:1001F60081E090E002C0880F991F6A95E2F780952A
:1002060082238ABB0895413059F427B381E090E0F8
:1002160002C0880F991F6A95E2F7822B87BB089563
:1002260027B381E090E002C0880F991F6A95E2F734
:100236008095822387BB0895413059F424B381E029
:1002460090E002C0880F991F6A95E2F7822B84BB63
:10025600089524B381E090E002C0880F991F6A9543
:10026600E2F78095822384BB0895413059F421B387
:1002760081E090E002C0880F991F6A95E2F7822B11
:1002860081BB089521B381E090E002C0880F991FD9
:0C0296006A95E2F78095822381BB0895F1
:1002A200843008F072C0683008F06FC0423008F045
:1002B2006CC0813001F130F08230B1F1833009F449
:1002C2004CC00895413059F42BB381E090E002C054
:1002D200880F991F6A95E2F7822B8BBB08952BB387
:1002E20081E090E002C0880F991F6A95E2F780953D
:1002F20082238BBB0895413059F428B381E090E00A
:1003020002C0880F991F6A95E2F7822B88BB089575
:1003120028B381E090E002C0880F991F6A95E2F746
:100322008095822388BB0895413059F425B381E03A
:1003320090E002C0880F991F6A95E2F7822B85BB75
:10034200089525B381E090E002C0880F991F6A9555
:10035200E2F78095822385BB0895413059F422B398
:1003620081E090E002C0880F991F6A95E2F7822B24
:1003720082BB089522B381E090E002C0880F991FEA
:0C0382006A95E2F78095822382BB089503
:10038E008091840090918500A0918600B0918700A5
:10039E000196A11DB11D8093840090938500A093BA
:1003AE008600B09387004091840050918500609143
:1003BE008600709187008091800090918100A091BD
:1003CE008200B0918300481759076A077B07C9F46A
:1003DE000E94660580918800909189009695879578
:1003EE0096958795815080938C0010928400109280
:1003FE008500109286001092870080918C000E94DA
:04040E007F050895C9
:1004120041E060E081E00E94DB0041E061E081E0D8
:100422000E94DB0041E062E081E00E94DB006FEFAE
:1004320082E00E94F6042FEB8AED90E0215080408A
:100442009040E1F700C0000088E30E949C0425E888
:100452002A95F1F700008FE00E949C0485E88A95B6
:10046200F1F7000081E00E949C048FE99FE0019770
:10047200F1F700C0000086E00E949C0495E89A957E
:06048200F1F700000895EF
:100488008430A8F5683098F5813089F028F08230FA
:10049800C9F0833011F108952BB381E090E002C0D8
:1004A800880F991F6A95E2F782278BBB089528B3B6
:1004B80081E090E002C0880F991F6A95E2F78227D1
:1004C80088BB089525B381E090E002C0880F991F8A
:1004D8006A95E2F7822785BB089522B381E090E010
:1004E80002C0880F991F6A95E2F7822782BB089598
:1004F8001F920F920FB60F9211242F933F934F9391
:100508005F936F937F938F939F93AF93BF93EF9373
:10051800FF93E0918A00F0918B0024B185B190E0BF
:10052800982F8827822B91838083E0E0F0E009955B
:100538000E946F05FF91EF91BF91AF919F918F91AD
:100548007F916F915F914F913F912F910F900FBEC7
:060558000F901F901895A2
:10055E0097B1907E97B997B1892B87B90E9477058D
:10056E0080E090E0DC0103C00196A11DB11D34991D
:10057E0007C088382DE0920721E0A207B105A0F34D
:10058E0088389D40A140B10579F08FE19EE4019736
:10059E00F1F700C000000E94730524B185B190E010
:0E05AE00982F8827822B089580E090E0089512
:1005BC000E946B0560E080E00E9431050E94DB0424
:1005CC000E9409020E9460050E940C056AE087ECFB
:1005DC0091E00E9440058DE70E947D0580E00E941D
:1005EC00AF029093890080938800BC0180E090E07A
:1005FC000E945D002FEF84E39CE0215080409040EE
:0C060C00E1F700C000000E945605E8CF96
:100618001F920F920FB60F9211242F933F934F936F
:100628005F936F937F938F939F93AF93BF93EF9352
:10063800FF93E0917600F0917700309709F00995E3
:10064800FF91EF91BF91AF919F918F917F916F91A2
:100658005F914F913F912F910F900FBE0F901F9078
:020668001895E3
:10066A001F920F920FB60F9211242F933F934F931D
:10067A005F936F937F938F939F93AF93BF93EF9300
:10068A00FF93E0917400F0917500309709F0099595
:10069A00FF91EF91BF91AF919F918F917F916F9150
:1006AA005F914F913F912F910F900FBE0F901F9026
:0206BA00189591
:1006BC001F920F920FB60F9211242F933F934F93CB
:1006CC005F936F937F938F939F93AF93BF93EF93AE
:1006DC00FF93E0917200F0917300309709F0099547
:1006EC00FF91EF91BF91AF919F918F917F916F91FE
:1006FC005F914F913F912F910F900FBE0F901F90D4
:02070C0018953E
:10070E001F920F920FB60F9211242F933F934F9378
:10071E005F936F937F938F939F93AF93BF93EF935B
:10072E00FF93E0917000F0917100309709F00995F8
:10073E00FF91EF91BF91AF919F918F917F916F91AB
:10074E005F914F913F912F910F900FBE0F901F9081
:02075E001895EC
:100760001F920F920FB60F9211242F933F934F9326
:100770005F936F937F938F939F93AF93BF93EF9309
:10078000FF93E0916E00F0916F00309709F00995AA
:10079000FF91EF91BF91AF919F918F917F916F9159
:1007A0005F914F913F912F910F900FBE0F901F902F
:0207B00018959A
:1007B2001F920F920FB60F9211242F933F934F93D4
:1007C2005F936F937F938F939F93AF93BF93EF93B7
:1007D200FF93E0916C00F0916D00309709F009955C
:1007E200FF91EF91BF91AF919F918F917F916F9107
:1007F2005F914F913F912F910F900FBE0F901F90DD
:02080200189547
:100804001F920F920FB60F9211242F933F934F9381
:100814005F936F937F938F939F93AF93BF93EF9364
:10082400FF93E0916A00F0916B00309709F009950D
:10083400FF91EF91BF91AF919F918F917F916F91B4
:100844005F914F913F912F910F900FBE0F901F908A
:020854001895F5
:100856001F920F920FB60F9211242F933F934F932F
:100866005F936F937F938F939F93AF93BF93EF9312
:10087600FF93E0916800F0916900309709F00995BF
:10088600FF91EF91BF91AF919F918F917F916F9162
:100896005F914F913F912F910F900FBE0F901F9038
:0208A6001895A3
:1008A800CF93C82F41E060E081E00E94510140E011
:1008B80061E081E00E9451016C2F82E00E941F05D7
:1008C80041E062E081E00E94510182E08A95F1F7FF
:1008D80000C040E062E081E00E9451018FE19EE4A7
:0C08E8000197F1F700C00000CF910895C7
:1008F400A1E21A2EAA1BBB1BFD010DC0AA1FBB1F20
:10090400EE1FFF1FA217B307E407F50720F0A21B91
:10091400B30BE40BF50B661F771F881F991F1A94FE
:1009240069F760957095809590959B01AC01BD0128
:04093400CF01089552
:10093800CF93C82F40E060E081E00E94510140E081
:1009480061E081E00E9451016C2F82E00E941F0546
:1009580041E062E081E00E94510182E08A95F1F76E
:1009680000C040E062E081E00E945101CF9108950B
:10097800CF92DF92EF92CF9361157105810591F0C7
:100988006B01E82EC0E003C00E945404CF5FAE2D77
:10099800C6018C0F911DA11DFC018491A7FD8081CA
:0E09A8008111F2CFCF91EF90DF90CF900895A4
:1009B60087B18F7B87B987B18F7787B987B18F7DED
:1009C60087B986B1887F86B986B1866086B986B1D1
:1009D600806286B980B7817180BF80B780BF86B1DB
:0609E600806886B9089547
:1009EC00843098F4813049F028F0823049F083301B
:1009FC0051F008958FEF8ABB08958FEF87BB089550
:0C0A0C008FEF84BB08958FEF81BB08952D
:100A180083B78F7B83BF83B7886083BF89B78260C2
:100A280089BF83B78B7F83BF83B7826083BF83B758
:060A3800816083BF0895F8
:100A3E00843078F4813041F028F0823039F0833000
:100A4E0039F008956BBB089568BB089565BB089592
:040A5E0062BB0895DA
:100A6200CF93DF93C82FD62F41E00E94DB0040E0F6
:0E0A72006D2F8C2F0E945101DF91CF910895BE
:100A8000009741F0E62FF0E0EE0FFF1FE05AFF4F16
:060A9000918380830895AC
:100A9600EC010E9484050E948305CE010E94850513
:060AA600CE010E94810553
:100AAC0081E00E949C048FE99FE00197F1F700C060
:040ABC000000089599
:0C0AC00041E067E081E00E94DB00089547
:0A0ACC0067E081E00E9444020895F3
:080AD6008FB780688FBF0895FF
:080ADE0086B1877F86B90895F7
:080AE60086B1806186B9089514
:080AEE0086B1806486B9089509
:040AF6000C9400005C
:040AFA0082BF08951A
:040AFE008CBF08950C
:040B02000E945B00F2
:020B0600089550
:020B080008954E
:020B0A0008954C
:040B0C00E8030000FA
:00000001FF
