:100000000C9430000C94E1020C940D030C94390311
:100010000C94CE040C94CE040C94CE040C94CE0418
:100020000C94CE040C94CE040C94CE040C94CE0408
:100030000C94CE040C94CE040C94CE040C94CE04F8
:100040000C94AE020C94CE040C94CE040C94CE040A
:100050000C94CE040060006880006800690000BB5A
:1000600011241FBECFE5D8E0DEBFCDBFE4E5F0E050
:1000700040E017C0B591A59135912591059107FDF7
:100080000CC095918591EF01F92FE82F05900D9205
:10009000A217B307D9F7FE0104C01D92A217B30738
:1000A000E1F7E036F40731F70E9473020C949504EF
:0400B000F894FFCFF2
:0700B400206D5600204300FF
:0100BB000143
:1000BC000F931F93CF93DF93CDB7DEB72A970FB66D
:1000CC00F894DEBF0FBECDBFFC0140E050E010E065
:1000DC0031C0CA01880F991F440F551F440F551F7B
:1000EC00440F551F480F591F9F01ADECBCEC0E94EB
:1000FC007B049695879596958795969587959C0103
:10010C00220F331F880F991F880F991F880F991F73
:10011C00820F931F9F01281B390B420F531F9F0106
:10012C000E947B04FC01F695E795F695E795F6950C
:10013C00E7951F5F309769F600E02DC09A01ADEC92
:10014C00BCEC0E947B049695879596958795969521
:10015C0087959C01220F331F880F991F880F991FB9
:10016C00880F991F820F931F9A01281B390BC90105
:10017C0021E030E02C0F3D1FE20FF31F805D8083E8
:10018C009A010E947B04AC0156954795569547956C
:10019C00569547950F5FE02F002E000CFF0B812F1B
:1001AC0090E0E817F90754F2BE016F5F7F4FFB0137
:1001BC00E80FF91F108280E80E94AB032A960FB655
:1001CC00F894DEBF0FBECDBFDF91CF911F910F9181
:0201DC00089584
:1001DE00843008F072C0683008F06FC0423008F00A
:1001EE006CC0813001F130F08230B1F1833009F40E
:1001FE004CC00895413059F42AB381E090E002C01A
:10020E00880F991F6A95E2F7822B8ABB08952AB34D
:10021E0081E090E002C0880F991F6A95E2F7809501
:10022E0082238ABB0895413059F427B381E090E0D0
:10023E0002C0880F991F6A95E2F7822B87BB08953B
:10024E0027B381E090E002C0880F991F6A95E2F70C
:10025E008095822387BB0895413059F424B381E001
:10026E0090E002C0880F991F6A95E2F7822B84BB3B
:10027E00089524B381E090E002C0880F991F6A951B
:10028E00E2F78095822384BB0895413059F421B35F
:10029E0081E090E002C0880F991F6A95E2F7822BE9
:1002AE0081BB089521B381E090E002C0880F991FB1
:0C02BE006A95E2F78095822381BB0895C9
:1002CA00843008F072C0683008F06FC0423008F01D
:1002DA006CC0813001F130F08230B1F1833009F421
:1002EA004CC00895413059F42BB381E090E002C02C
:1002FA00880F991F6A95E2F7822B8BBB08952BB35F
:10030A0081E090E002C0880F991F6A95E2F7809514
:10031A0082238BBB0895413059F428B381E090E0E1
:10032A0002C0880F991F6A95E2F7822B88BB08954D
:10033A0028B381E090E002C0880F991F6A95E2F71E
:10034A008095822388BB0895413059F425B381E012
:10035A0090E002C0880F991F6A95E2F7822B85BB4D
:10036A00089525B381E090E002C0880F991F6A952D
:10037A00E2F78095822385BB0895413059F422B370
:10038A0081E090E002C0880F991F6A95E2F7822BFC
:10039A0082BB089522B381E090E002C0880F991FC2
:0C03AA006A95E2F78095822382BB0895DB
:1003B600663031F0673041F1653009F055C048C00C
:1003C600813069F028F0823089F08330B1F00895E9
:1003D60085B78E7F85BF85B7826085BF089585B74F
:1003E600816085BF85B7826085BF089585B78E7F9A
:1003F60085BF85B78D7F85BF089585B7816085BF29
:1004060085B78D7F85BF0895813069F028F08230E9
:1004160089F08330B1F0089585B78B7F85BF85B7A6
:10042600886085BF089585B7846085BF85B7886075
:1004360085BF089585B78B7F85BF85B7877F85BFC5
:10044600089585B7846085BF85B7877F85BF089582
:10045600882319F0813029F0089584B78F7B84BFF3
:0A046600089584B7806484BF0895F0
:1004700041E060E081E00E94EF0041E061E081E066
:100480000E94EF0041E062E081E00E94EF006FEF28
:1004900082E00E941C042FEB8AED90E02150804006
:1004A0009040E1F700C0000088E30E948B0325E83C
:1004B0002A95F1F700008FE00E948B0385E88A956A
:1004C000F1F7000081E00E948B038FE99FE0019724
:1004D000F1F700C0000086E00E948B0395E89A9532
:0604E000F1F70000089591
:1004E6000E94B8040E94CB040E94C8040E943802ED
:1004F6000E94B10466E081E00E94DB0186E00E9472
:100506006A0460E08AEA94E00E948A0480916800A6
:10051600813051F40E9432040E945E0064EB70E068
:1005260080E00E94AB030BC0811109C00E94CA0380
:100536000E945E0068EB70E080E00E94AB032FEF44
:1005460089E698E1215080409040E1F700C0000024
:060556000E94A004DBCFAF
:10055C001F920F920FB60F9211242F933F934F932C
:10056C005F936F937F938F939F93AF93BF93EF930F
:10057C00FF93E0916600F091670024B185B190E0A3
:10058C00982F8827822B91838083E0E0F0E00995F7
:10059C000E94BC04FF91EF91BF91AF919F918F91FD
:1005AC007F916F915F914F913F912F910F900FBE63
:0605BC000F901F9018953E
:1005C2001F920F920FB60F9211242F933F934F93C6
:1005D2005F936F937F938F939F93AF93BF93EF93A9
:1005E200FF93E0916000F0916100309721F009954E
:1005F20086E00E945804FF91EF91BF91AF919F91C5
:100602008F917F916F915F914F913F912F910F90B9
:080612000FBE0F901F90189518
:10061A001F920F920FB60F9211242F933F934F936D
:10062A005F936F937F938F939F93AF93BF93EF9350
:10063A00FF93E0916200F0916300309721F00995F1
:10064A0087E00E945804FF91EF91BF91AF919F916B
:10065A008F917F916F915F914F913F912F910F9061
:08066A000FBE0F901F901895C0
:100672001F920F920FB60F9211242F933F934F9315
:100682005F936F937F938F939F93AF93BF93EF93F8
:10069200FF93E0916400F0916500309721F0099595
:1006A20085E00E945804FF91EF91BF91AF919F9115
:1006B2008F917F916F915F914F913F912F910F9009
:0806C2000FBE0F901F90189568
:1006CA00CF93C82F41E060E081E00E94650140E0DD
:1006DA0061E081E00E9465016C2F82E00E9446047D
:1006EA0041E062E081E00E94650182E08A95F1F7CB
:1006FA0000C040E062E081E00E9465018FE19EE473
:0C070A000197F1F700C00000CF910895A6
:10071600CF93C82F40E060E081E00E94650140E091
:1007260061E081E00E9465016C2F82E00E94460430
:1007360041E062E081E00E94650182E08A95F1F77E
:1007460000C040E062E081E00E946501CF9108951B
:10075600CF92DF92EF92CF9361157105810591F0EB
:100766006B01E82EC0E003C00E946503CF5FAE2D8B
:10077600C6018C0F911DA11DFC018491A7FD8081EE
:0E0786008111F2CFCF91EF90DF90CF900895C8
:1007940080E00E9403049C01A8E8B3E10E947B046A
:1007A4009B01AC01012E1AE0569547953795279584
:1007B4001A95D1F7102DADECBCEC0E947B049695F4
:0C07C400879596958795969587950895E2
:1007D00087B18F7B87B987B18F7787B987B18F7DD5
:1007E00087B986B1887F86B986B1866086B986B1B9
:1007F000806286B980B7817180BF80B780BF86B1C3
:06080000806886B908952E
:1008060097B1907E97B997B1892B87B90E94C40496
:10081600349BFECF8FE19EE40197F1F700C0000004
:100826000E94C00424B185B190E0982F8827822BBE
:02083600089523
:10083800843098F4813049F028F0823049F08330D0
:1008480051F008958FEF8ABB08958FEF87BB089505
:0C0858008FEF84BB08958FEF81BB0895E3
:1008640081E00E9403049C01A8E8B3E10E947B0498
:10087400DC01CB01072E7AE0B695A795979587956D
:080884007A95D1F7702D08955B
:10088C00843078F4813041F028F0823039F08330B4
:10089C0039F008956BBB089568BB089565BB089546
:0408AC0062BB08958E
:1008B0009BEF980F933068F44AB721E030E0B9011C
:1008C00002C0660F771F8A95E2F7CB0180958423DB
:0408D0008ABF08953E
:1008D4009BEF980F933060F44BB721E030E0B901FF
:1008E40002C0660F771F8A95E2F7CB01842B8BBF7A
:0208F400089565
:1008F600A29FB001B39FC001A39F700D811D11245B
:0E090600911DB29F700D811D1124911D089549
:10091400009741F0E62FF0E0EE0FFF1FE05AFF4F83
:0609240091838083089519
:10092A00EC010E94D3040E94D204CE010E94D40496
:06093A00CE010E94D00472
:1009400081E00E948B038FE99FE00197F1F700C0DF
:040950000000089506
:0E0954009091680081E08927809368000895E3
:0E09620085B7816085BF85B78D7F85BF0895FD
:080970008FB780688FBF089566
:0809780086B1877F86B908955E
:0809800086B1806186B908957B
:0809880086B1806486B9089570
:060990000E94E803089537
:060996000E94E803089531
:04099C000C940000B7
:0409A0000E94580059
:0209A4000895B4
:0209A6000895B2
:0209A8000895B0
:00000001FF
