:100000000C942A000C94A7010C94A7010C94A7014E
:100010000C94A7010C94A7010C94A7010C94A701C0
:100020000C94A7010C94A7010C94A7010C94A701B0
:100030000C94A7010C94A7010C94A7010C94A701A0
:100040000C94A7010C94A7010C94A7010C94A70190
:100050000C94A70111241FBECFE5D8E0DEBFCDBFB1
:0C0060000E9422010C949501F894FFCF3F
:10006C00843008F072C0683008F06FC0423008F07D
:10007C006CC0813001F130F08230B1F1833009F481
:10008C004CC00895413059F42AB381E090E002C08D
:10009C00880F991F6A95E2F7822B8ABB08952AB3C1
:1000AC0081E090E002C0880F991F6A95E2F7809575
:1000BC0082238ABB0895413059F427B381E090E044
:1000CC0002C0880F991F6A95E2F7822B87BB0895AF
:1000DC0027B381E090E002C0880F991F6A95E2F780
:1000EC008095822387BB0895413059F424B381E075
:1000FC0090E002C0880F991F6A95E2F7822B84BBAF
:10010C00089524B381E090E002C0880F991F6A958E
:10011C00E2F78095822384BB0895413059F421B3D2
:10012C0081E090E002C0880F991F6A95E2F7822B5C
:10013C0081BB089521B381E090E002C0880F991F24
:0C014C006A95E2F78095822381BB08953C
:10015800843008F072C0683008F06FC0423008F090
:100168006CC0813001F130F08230B1F1833009F494
:100178004CC00895413059F42BB381E090E002C09F
:10018800880F991F6A95E2F7822B8BBB08952BB3D2
:1001980081E090E002C0880F991F6A95E2F7809588
:1001A80082238BBB0895413059F428B381E090E055
:1001B80002C0880F991F6A95E2F7822B88BB0895C1
:1001C80028B381E090E002C0880F991F6A95E2F792
:1001D8008095822388BB0895413059F425B381E086
:1001E80090E002C0880F991F6A95E2F7822B85BBC1
:1001F800089525B381E090E002C0880F991F6A95A1
:10020800E2F78095822385BB0895413059F422B3E3
:1002180081E090E002C0880F991F6A95E2F7822B6F
:1002280082BB089522B381E090E002C0880F991F35
:0C0238006A95E2F78095822382BB08954E
:1002440060E080E00E94A00161E080E00E94A001E3
:1002540041E062E080E00E94360041E063E080E03B
:100264000E94360005C041E062E080E00E94AC00DC
:1002740060E080E00E94A40181110FC0F4CF41E04E
:1002840063E080E00E94AC002FEF84E39CE0215007
:1002940080409040E1F700C0000061E080E00E94EF
:1002A400A401882361F340E062E080E00E94AC0096
:0C02B40040E063E080E00E94AC00DACF84
:1002C000843078F5683078F5813079F028F0823024
:1002D000A9F08330E1F024C089B390E002C0959585
:1002E00087956A95E2F78170089586B390E002C021
:1002F000959587956A95E2F78170089583B390E0AC
:1003000002C0959587956A95E2F78170089580B34C
:1003100090E002C0959587956A95E2F781700895FF
:0A032000089581E0089582E0089539
:10032A00EC010E94AC010E94AB01CE010E94AD011A
:06033A00CE010E94A901A2
:0803400040E00E943600089520
:060348000E94600108950F
:04034E000C9400000B
:040352000E943400D1
:02035600089508
:02035800089506
:02035A00089504
:00000001FF
