:100000000C942D000C94B2030C94B2030C94B20324
:100010000C94B2030C94B2030C94B2030C94B2038C
:100020000C94B2030C94B2030C94B2030C94B2037C
:100030000C94B2030C94B2030C94B2030C94B2036C
:100040000C9457020C94B2030C94B2030C94B203B8
:100050000C94B20300600062800011241FBECFE543
:10006000D8E0DEBFCDBFE4E5F0E040E017C0B591D9
:10007000A59135912591059107FD0CC0959185912C
:10008000EF01F92FE82F05900D92A217B307D9F7CA
:10009000FE0104C01D92A217B307E1F7E935F4078A
:0E00A00031F70E94D4010C948703F894FFCF2F
:1000AE000F931F93CF93DF93CDB7DEB72A970FB67B
:1000BE00F894DEBF0FBECDBFFC0140E050E010E073
:1000CE0031C0CA01880F991F440F551F440F551F89
:1000DE00440F551F480F591F9F01ADECBCEC0E94F9
:1000EE0078039695879596958795969587959C0115
:1000FE00220F331F880F991F880F991F880F991F82
:10010E00820F931F9F01281B390B420F531F9F0114
:10011E000E947803FC01F695E795F695E795F6951E
:10012E00E7951F5F309769F600E02DC09A01ADECA0
:10013E00BCEC0E9478039695879596958795969533
:10014E0087959C01220F331F880F991F880F991FC7
:10015E00880F991F820F931F9A01281B390BC90113
:10016E0021E030E02C0F3D1FE20FF31F805D8083F6
:10017E009A010E947803AC0156954795569547957E
:10018E00569547950F5FE02F002E000CFF0B812F29
:10019E0090E0E817F90754F2BE016F5F7F4FFB0145
:1001AE00E80FF91F108280E80E94D0022A960FB63F
:1001BE00F894DEBF0FBECDBFDF91CF911F910F918F
:0201CE00089592
:1001D000843008F072C0683008F06FC0423008F018
:1001E0006CC0813001F130F08230B1F1833009F41C
:1001F0004CC00895413059F42AB381E090E002C028
:10020000880F991F6A95E2F7822B8ABB08952AB35B
:1002100081E090E002C0880F991F6A95E2F780950F
:1002200082238ABB0895413059F427B381E090E0DE
:1002300002C0880F991F6A95E2F7822B87BB089549
:1002400027B381E090E002C0880F991F6A95E2F71A
:100250008095822387BB0895413059F424B381E00F
:1002600090E002C0880F991F6A95E2F7822B84BB49
:10027000089524B381E090E002C0880F991F6A9529
:10028000E2F78095822384BB0895413059F421B36D
:1002900081E090E002C0880F991F6A95E2F7822BF7
:1002A00081BB089521B381E090E002C0880F991FBF
:0C02B0006A95E2F78095822381BB0895D7
:1002BC00843008F072C0683008F06FC0423008F02B
:1002CC006CC0813001F130F08230B1F1833009F42F
:1002DC004CC00895413059F42BB381E090E002C03A
:1002EC00880F991F6A95E2F7822B8BBB08952BB36D
:1002FC0081E090E002C0880F991F6A95E2F7809523
:10030C0082238BBB0895413059F428B381E090E0EF
:10031C0002C0880F991F6A95E2F7822B88BB08955B
:10032C0028B381E090E002C0880F991F6A95E2F72C
:10033C008095822388BB0895413059F425B381E020
:10034C0090E002C0880F991F6A95E2F7822B85BB5B
:10035C00089525B381E090E002C0880F991F6A953B
:10036C00E2F78095822385BB0895413059F422B37E
:10037C0081E090E002C0880F991F6A95E2F7822B0A
:10038C0082BB089522B381E090E002C0880F991FD0
:0C039C006A95E2F78095822382BB0895E9
:1003A8000E949C0365E081E00E94690366E081E0A9
:1003B8000E94690367E081E00E9469030E94AC0320
:1003C8000E941C020E94EF02EC010E945700C431F7
:1003D800D10530F441E065E081E00E94AF030DC033
:1003E800A89730F441E066E081E00E94AF0305C0C1
:1003F80041E067E081E00E94AF032FEF89E698E1D2
:10040800215080409040E1F700C000000E94920314
:1004180040E065E081E00E94AF0340E066E081E0F3
:100428000E94AF0340E067E081E00E94AF03CACFBB
:1004380041E060E081E00E94E80041E061E081E0A5
:100448000E94E80041E062E081E00E94E8006FEF6E
:1004580082E00E9441032FEB8AED90E0215080401A
:100468009040E1F700C0000088E30E94B00225E850
:100478002A95F1F700008FE00E94B00285E88A957E
:10048800F1F7000081E00E94B0028FE99FE0019738
:10049800F1F700C0000086E00E94B00295E89A9546
:0604A800F1F700000895C9
:1004AE001F920F920FB60F9211242F933F934F93DB
:1004BE005F936F937F938F939F93AF93BF93EF93BE
:1004CE00FF93E0916000F091610024B185B190E05E
:1004DE00982F8827822B91838083E0E0F0E00995A6
:1004EE000E94A003FF91EF91BF91AF919F918F91C9
:1004FE007F916F915F914F913F912F910F900FBE12
:06050E000F901F901895EC
:10051400CF93C82F41E060E081E00E945E0140E09B
:1005240061E081E00E945E016C2F82E00E9457032B
:1005340041E062E081E00E945E0182E08A95F1F789
:1005440000C040E062E081E00E945E018FE19EE431
:0C0554000197F1F700C00000CF9108955E
:10056000CF93C82F40E060E081E00E945E0140E050
:1005700061E081E00E945E016C2F82E00E945703DF
:1005800041E062E081E00E945E0182E08A95F1F73D
:1005900000C040E062E081E00E945E01CF910895DA
:1005A000CF92DF92EF92CF9361157105810591F0A3
:1005B0006B01E82EC0E003C00E948A02CF5FAE2D1F
:1005C000C6018C0F911DA11DFC018491A7FD8081A6
:0E05D0008111F2CFCF91EF90DF90CF90089580
:1005DE0080E00E9428039C01A8E8B3E10E94780302
:1005EE009B01AC01012E1AE056954795379527953C
:1005FE001A95D1F7102DADECBCEC0E9478039695B0
:0C060E0087959695879596958795089599
:10061A0087B18F7B87B987B18F7787B987B18F7D8C
:10062A0087B986B1887F86B986B1866086B986B170
:10063A00806286B980B7817180BF80B780BF86B17A
:06064A00806886B90895E6
:1006500097B1907E97B997B1892B87B90E94A8036B
:10066000349BFECF8FE19EE40197F1F700C00000BC
:100670000E94A40324B185B190E0982F8827822B93
:020680000895DB
:10068200843098F4813049F028F0823049F0833088
:1006920051F008958FEF8ABB08958FEF87BB0895BD
:0C06A2008FEF84BB08958FEF81BB08959B
:1006AE00843078F4813041F028F0823039F0833094
:1006BE0039F008956BBB089568BB089565BB089526
:0406CE0062BB08956E
:1006D200CF93DF93C82FD62F41E00E94E80040E07D
:0E06E2006D2F8C2F0E945E01DF91CF91089545
:1006F000A29FB001B39FC001A39F700D811D112463
:0E070000911DB29F700D811D1124911D089551
:10070E00EC010E94B7030E94B603CE010E94B8030B
:06071E00CE010E94B403AD
:1007240081E00E94B0028FE99FE00197F1F700C0D9
:040734000000089524
:080738008FB780688FBF0895A0
:0807400086B1877F86B9089598
:0807480086B1806186B90895B5
:0807500086B1806486B90895AA
:060758000E940D0308954C
:06075E000E945E010895F7
:040764000C940000F1
:040768000E94550096
:02076C000895EE
:02076E000895EC
:020770000895EA
:00000001FF
