:100000000C942D000C942A010C9456010C9482013E
:100010000C947F020C947F020C947F020C947F025C
:100020000C947F020C947F020C947F020C947F024C
:100030000C947F020C947F020C947F020C947F023C
:100040000C947F020C947F020C947F020C947F022C
:100050000C947F0200600067800011241FBECFE572
:10006000D8E0DEBFCDBFE4E5F0E040E017C0B591D9
:10007000A59135912591059107FD0CC0959185912C
:10008000EF01F92FE82F05900D92A217B307D9F7CA
:10009000FE0104C01D92A217B307E1F7E935F4078A
:0E00A00031F70E94AE010C946202F894FFCF7B
:1000AE00843008F072C0683008F06FC0423008F03B
:1000BE006CC0813001F130F08230B1F1833009F43F
:1000CE004CC00895413059F42AB381E090E002C04B
:1000DE00880F991F6A95E2F7822B8ABB08952AB37F
:1000EE0081E090E002C0880F991F6A95E2F7809533
:1000FE0082238ABB0895413059F427B381E090E002
:10010E0002C0880F991F6A95E2F7822B87BB08956C
:10011E0027B381E090E002C0880F991F6A95E2F73D
:10012E008095822387BB0895413059F424B381E032
:10013E0090E002C0880F991F6A95E2F7822B84BB6C
:10014E00089524B381E090E002C0880F991F6A954C
:10015E00E2F78095822384BB0895413059F421B390
:10016E0081E090E002C0880F991F6A95E2F7822B1A
:10017E0081BB089521B381E090E002C0880F991FE2
:0C018E006A95E2F78095822381BB0895FA
:10019A00663031F0673041F1653009F055C048C02A
:1001AA00813069F028F0823089F08330B1F0089507
:1001BA0085B78E7F85BF85B7826085BF089585B76D
:1001CA00816085BF85B7826085BF089585B78E7FB8
:1001DA0085BF85B78D7F85BF089585B7816085BF47
:1001EA0085B78D7F85BF0895813069F028F0823008
:1001FA0089F08330B1F0089585B78B7F85BF85B7C5
:10020A00886085BF089585B7846085BF85B7886093
:10021A0085BF089585B78B7F85BF85B7877F85BFE3
:10022A00089585B7846085BF85B7877F85BF0895A0
:10023A00882319F0813029F0089584B78F7B84BF11
:0A024A00089584B7806484BF08950E
:100254001F920F920FB60F9211242F933F934F9337
:100264005F936F937F938F939F93AF93BF93EF931A
:10027400FF93E0916000F0916100309721F00995BF
:1002840086E00E940F02FF91EF91BF91AF919F9181
:100294008F917F916F915F914F913F912F910F902B
:0802A4000FBE0F901F9018958A
:1002AC001F920F920FB60F9211242F933F934F93DF
:1002BC005F936F937F938F939F93AF93BF93EF93C2
:1002CC00FF93E0916200F0916300309721F0099563
:1002DC0087E00E940F02FF91EF91BF91AF919F9128
:1002EC008F917F916F915F914F913F912F910F90D3
:0802FC000FBE0F901F90189532
:100304001F920F920FB60F9211242F933F934F9386
:100314005F936F937F938F939F93AF93BF93EF9369
:10032400FF93E0916400F0916500309721F0099506
:1003340085E00E940F02FF91EF91BF91AF919F91D1
:100344008F917F916F915F914F913F912F910F907A
:080354000FBE0F901F901895D9
:10035C0080E00E94570262E083E00E9478020E94D3
:10036C00740286E00E94210266E083E00E94CD00C8
:10037C0060E08DE692E00E944C0280916600811153
:0E038C0003C00E943202F9CF0E943F02F6CF5A
:10039A008430B8F4813051F028F0823059F083303B
:1003AA0069F008958BB380958BBB089588B38095C7
:1003BA0088BB089585B3809585BB089582B38095DF
:0403CA0082BB089555
:1003CE00843098F4813049F028F0823049F083303F
:1003DE0051F008958FEF8ABB08958FEF87BB089574
:0C03EE008FEF84BB08958FEF81BB089552
:1003FA00843078F4813041F028F0823039F083304B
:10040A0039F008956BBB089568BB089565BB0895DC
:04041A0062BB089524
:10041E009BEF980F933068F44AB721E030E0B901B2
:10042E0002C0660F771F8A95E2F7CB018095842371
:04043E008ABF0895D4
:100442009BEF980F933060F44BB721E030E0B90195
:1004520002C0660F771F8A95E2F7CB01842B8BBF10
:020462000895FB
:1004640080E00E947C022FEF84E39CE021508040D6
:0A0474009040E1F700C00000089579
:10047E0080E00E947C022FEF83ED90E321508040BC
:0A048E009040E1F700C0000008955F
:10049800009741F0E62FF0E0EE0FFF1FE05AFF4F04
:0604A8009183808308959A
:1004AE00CF93C82F6FEF0E94E70160E08C2F0E9460
:0604BE00FD01CF9108953D
:1004C400EC010E9484020E948302CE010E948502F4
:0604D400CE010E9481022E
:0E04DA009091660081E0892780936600089566
:0804E8008FB780688FBF0895F3
:0804F00040E00E94570008954E
:0604F8000E94CD010895F1
:0404FE000C9400005A
:040502000E945500FE
:02050600089556
:02050800089554
:02050A00089552
:00000001FF
