:100000000C942E000C9471020C9471020C947102E9
:100010000C9471020C9471020C9471020C94710294
:100020000C9471020C9471020C9471020C94710284
:100030000C9471020C9471020C9471020C94710274
:100040000C9471020C9471020C9471020C94710264
:100050000C947102006000680004F00011241FBEBF
:10006000CFE5D8E0DEBFCDBFE4E5F0E040E017C06B
:10007000B591A59135912591059107FD0CC09591FC
:100080008591EF01F92FE82F05900D92A217B30784
:10009000D9F7FE0104C01D92A217B307E1F7EB35B3
:1000A000F40731F70E9444010C945F02F894FFCFEB
:1000B000843008F072C0683008F06FC0423008F039
:1000C0006CC0813001F130F08230B1F1833009F43D
:1000D0004CC00895413059F42AB381E090E002C049
:1000E000880F991F6A95E2F7822B8ABB08952AB37D
:1000F00081E090E002C0880F991F6A95E2F7809531
:1001000082238ABB0895413059F427B381E090E0FF
:1001100002C0880F991F6A95E2F7822B87BB08956A
:1001200027B381E090E002C0880F991F6A95E2F73B
:100130008095822387BB0895413059F424B381E030
:1001400090E002C0880F991F6A95E2F7822B84BB6A
:10015000089524B381E090E002C0880F991F6A954A
:10016000E2F78095822384BB0895413059F421B38E
:1001700081E090E002C0880F991F6A95E2F7822B18
:1001800081BB089521B381E090E002C0880F991FE0
:0C0190006A95E2F78095822381BB0895F8
:10019C00843008F072C0683008F06FC0423008F04C
:1001AC006CC0813001F130F08230B1F1833009F450
:1001BC004CC00895413059F42BB381E090E002C05B
:1001CC00880F991F6A95E2F7822B8BBB08952BB38E
:1001DC0081E090E002C0880F991F6A95E2F7809544
:1001EC0082238BBB0895413059F428B381E090E011
:1001FC0002C0880F991F6A95E2F7822B88BB08957D
:10020C0028B381E090E002C0880F991F6A95E2F74D
:10021C008095822388BB0895413059F425B381E041
:10022C0090E002C0880F991F6A95E2F7822B85BB7C
:10023C00089525B381E090E002C0880F991F6A955C
:10024C00E2F78095822385BB0895413059F422B39F
:10025C0081E090E002C0880F991F6A95E2F7822B2B
:10026C0082BB089522B381E090E002C0880F991FF1
:0C027C006A95E2F78095822382BB08950A
:10028800CF93DF93CDB7DEB728970FB6F894DEBFCC
:100298000FBECDBF60E082E00E946A020E94B001FA
:1002A80088E0E0E6F0E0DE01119601900D928A9573
:1002B800E1F760E082E00E946E028130D1F78FE4BE
:1002C80093EC0197F1F700C0000060E082E00E9423
:1002D8006E02813071F704C060E082E00E946E0215
:0E02E8008130D1F3CE0101960E943802E2CFA0
:1002F600843078F5683078F5813079F028F08230EE
:10030600A9F08330E1F024C089B390E002C095954E
:1003160087956A95E2F78170089586B390E002C0EA
:10032600959587956A95E2F78170089583B390E075
:1003360002C0959587956A95E2F78170089580B316
:1003460090E002C0959587956A95E2F781700895C9
:0A035600089581E0089582E0089503
:1003600041E060E081E00E94580041E061E081E00E
:100370000E94580041E062E081E00E9458006FEF67
:1003800080E00E94220288E30E94E20185E88A95CB
:10039000F1F700008FE00E94E20195E89A95F1F7ED
:1003A000000081E00E94E2018FE99FE00197F1F7F0
:1003B00000C0000086E00E94E20195E89A95F1F7FE
:0403C000000008959C
:1003C400CF93C82F40E060E081E00E94CE0040E07F
:1003D40061E081E00E94CE0041E062E081E00E94A1
:1003E400CE006C2F80E00E944D0285E08A95F1F7E3
:1003F400000040E062E081E00E94CE00CF910895C9
:10040400CF93C82F41E060E081E00E94CE0040E03D
:1004140061E081E00E94CE0041E062E081E00E9460
:10042400CE006C2F80E00E944D0285E08A95F1F7A2
:10043400000040E062E081E00E94CE00CF91089588
:10044400843098F4813049F028F0823049F08330C8
:1004540051F008958FEF8ABB08958FEF87BB0895FD
:0C0464008FEF84BB08958FEF81BB0895DB
:100470000F931F93CF93009761F08C01C0E003C0EE
:100480000E940202CF5FF801EC0FF11D8081811103
:0A049000F7CFCF911F910F9108954F
:10049A00843078F4813041F028F0823039F08330AA
:1004AA0039F008956BBB089568BB089565BB08953C
:0404BA0062BB089584
:1004BE00EC010E9476020E947502CE010E94770224
:0604CE00CE010E94730242
:0804D40040E00E945800089569
:0604DC000E947B0108955F
:0404E2000C94000076
:0404E6000E9456001A
:0204EA00089573
:0204EC00089571
:0204EE0008956F
:0804F000505245535320460011
:00000001FF
