:100000000C942A000C949D010C949D010C949D016C
:100010000C949D010C949D010C949D010C949D01E8
:100020000C949D010C949D010C949D010C949D01D8
:100030000C949D010C949D010C949D010C949D01C8
:100040000C949D010C949D010C949D010C949D01B8
:100050000C949D0111241FBECFE5D8E0DEBFCDBFBB
:0C0060000E9422010C948B01F894FFCF49
:10006C00843008F072C0683008F06FC0423008F07D
:10007C006CC0813001F130F08230B1F1833009F481
:10008C004CC00895413059F42AB381E090E002C08D
:10009C00880F991F6A95E2F7822B8ABB08952AB3C1
:1000AC0081E090E002C0880F991F6A95E2F7809575
:1000BC0082238ABB0895413059F427B381E090E044
:1000CC0002C0880F991F6A95E2F7822B87BB0895AF
:1000DC0027B381E090E002C0880F991F6A95E2F780
:1000EC008095822387BB0895413059F424B381E075
:1000FC0090E002C0880F991F6A95E2F7822B84BBAF
:10010C00089524B381E090E002C0880F991F6A958E
:10011C00E2F78095822384BB0895413059F421B3D2
:10012C0081E090E002C0880F991F6A95E2F7822B5C
:10013C0081BB089521B381E090E002C0880F991F24
:0C014C006A95E2F78095822381BB08953C
:10015800843008F072C0683008F06FC0423008F090
:100168006CC0813001F130F08230B1F1833009F494
:100178004CC00895413059F42BB381E090E002C09F
:10018800880F991F6A95E2F7822B8BBB08952BB3D2
:1001980081E090E002C0880F991F6A95E2F7809588
:1001A80082238BBB0895413059F428B381E090E055
:1001B80002C0880F991F6A95E2F7822B88BB0895C1
:1001C80028B381E090E002C0880F991F6A95E2F792
:1001D8008095822388BB0895413059F425B381E086
:1001E80090E002C0880F991F6A95E2F7822B85BBC1
:1001F800089525B381E090E002C0880F991F6A95A1
:10020800E2F78095822385BB0895413059F422B3E3
:1002180081E090E002C0880F991F6A95E2F7822B6F
:1002280082BB089522B381E090E002C0880F991F35
:0C0238006A95E2F78095822382BB08954E
:100244000E94460160E082E00E945B010E946A0114
:100254000E949601833219F40E947501F9CF843209
:1002640019F40E948001F4CF803431F441E060E05D
:1002740082E00E949A01ECCF863251F740E060E0C0
:0802840082E00E949A01E4CF20
:10028C0083E389B910BC8BB18D7F8BB98BB18E7F19
:10029C008BB98AB18B7F8AB98EE880BD8AB18061B7
:0A02AC008AB98AB188608AB9089502
:1002B600CF93DF93C82FD62F41E00E94360040E04F
:0E02C6006D2F8C2F0E94AC00DF91CF91089518
:1002D40041E066E081E00E94360041E067E081E0B1
:0602E4000E94360008959F
:1002EA0041E066E081E00E94AC0040E067E081E026
:0602FA000E94AC00089513
:1003000040E066E081E00E94AC0040E067E081E010
:060310000E94AC000895FC
:10031600EC010E94A2010E94A101CE010E94A3014C
:06032600CE010E949F01C0
:08032C005F9BFECF8CB1089528
:060334000E94AC000895D8
:04033A000C9400001F
:04033E000E943400E5
:0203420008951C
:0203440008951A
:02034600089518
:00000001FF
