:100000000C9432000C94FA020C94FA020C94FA024A
:100010000C94FA020C94FA020C94FA020C94FA0270
:100020000C94FA020C94FA020C94FA020C94FA0260
:100030000C94FA020C94FA020C94FA020C94FA0250
:100040000C94FA020C94FA020C94FA020C94FA0240
:100050000C94FA0257015A015D01600163016601C7
:1000600069016C0111241FBECFE5D8E0DEBFCDBF12
:0C0070000E942A010C94DB02F894FFCFE0
:10007C00843008F072C0683008F06FC0423008F06D
:10008C006CC0813001F130F08230B1F1833009F471
:10009C004CC00895413059F42AB381E090E002C07D
:1000AC00880F991F6A95E2F7822B8ABB08952AB3B1
:1000BC0081E090E002C0880F991F6A95E2F7809565
:1000CC0082238ABB0895413059F427B381E090E034
:1000DC0002C0880F991F6A95E2F7822B87BB08959F
:1000EC0027B381E090E002C0880F991F6A95E2F770
:1000FC008095822387BB0895413059F424B381E065
:10010C0090E002C0880F991F6A95E2F7822B84BB9E
:10011C00089524B381E090E002C0880F991F6A957E
:10012C00E2F78095822384BB0895413059F421B3C2
:10013C0081E090E002C0880F991F6A95E2F7822B4C
:10014C0081BB089521B381E090E002C0880F991F14
:0C015C006A95E2F78095822381BB08952C
:10016800843008F072C0683008F06FC0423008F080
:100178006CC0813001F130F08230B1F1833009F484
:100188004CC00895413059F42BB381E090E002C08F
:10019800880F991F6A95E2F7822B8BBB08952BB3C2
:1001A80081E090E002C0880F991F6A95E2F7809578
:1001B80082238BBB0895413059F428B381E090E045
:1001C80002C0880F991F6A95E2F7822B88BB0895B1
:1001D80028B381E090E002C0880F991F6A95E2F782
:1001E8008095822388BB0895413059F425B381E076
:1001F80090E002C0880F991F6A95E2F7822B85BBB1
:10020800089525B381E090E002C0880F991F6A9590
:10021800E2F78095822385BB0895413059F422B3D3
:1002280081E090E002C0880F991F6A95E2F7822B5F
:1002380082BB089522B381E090E002C0880F991F25
:0C0248006A95E2F78095822382BB08953E
:1002540040E060E080E00E943E0040E061E080E039
:100264000E943E0040E062E080E00E943E0081E0A7
:100274000E94D00260E080E00E946F01C82F61E01C
:1002840080E00E946F01880FC80F62E080E00E9446
:100294006F01880F880FC80FEC2FF0E0E830F105EC
:1002A40048F7E65DFF4F0C94E6020E94C302E2CFDA
:1002B4000E942902DFCF0E944802DCCF0E94D701AE
:1002C400D9CF0E940002D6CF0E94A401D3CF0E94AE
:0A02D4008102D0CF0E94EC02CDCFD2
:1002DE00843078F5683078F5813079F028F0823006
:1002EE00A9F08330E1F024C089B390E002C0959567
:1002FE0087956A95E2F78170089586B390E002C003
:10030E00959587956A95E2F78170089583B390E08D
:10031E0002C0959587956A95E2F78170089580B32E
:10032E0090E002C0959587956A95E2F781700895E1
:0A033E00089581E0089582E008951B
:10034800CF93C0E014C041E06C2F81E00E94F4021A
:100358002FE78AE196E0215080409040E1F700C005
:10036800000040E06C2F81E00E94F402CF5FC830AB
:1003780050F3C6E041E06C2F81E00E94F4022FE7C1
:100388008AE196E0215080409040E1F700C00000EB
:1003980040E06C2F81E00E94F402CC2311F0C150A0
:0603A800E9CFCF9108959A
:1003AE00CF93DF93C0E020C041E06C2F81E00E942C
:1003BE00F402D7E0DC1B41E06D2F81E00E94F402D5
:1003CE002FEF82E597E0215080409040E1F700C08A
:1003DE00000040E06C2F81E00E94F40240E06D2F9F
:1003EE0081E00E94F402CF5FC430F0F2DF91CF9132
:0203FE00089560
:10040000CF93DF93C3E041E06C2F81E00E94F402C0
:10041000D7E0DC1B41E06D2F81E00E94F4022FEF5A
:1004200082E597E0215080409040E1F700C0000055
:1004300040E06C2F81E00E94F40240E06D2F81E0EB
:100440000E94F402CC2311F0C150DDCFDF91CF9197
:0204500008950D
:10045200CF93C0E014C041E06C2F81E00E94F4020F
:100462002FE78AE196E0215080409040E1F700C0FA
:10047200000040E06C2F81E00E94F402CF5FC830A0
:0E04820050F360E081E00E94F702CF910895F0
:10049000CF93C7E041E06C2F81E00E94F4022FE788
:1004A0008AE196E0215080409040E1F700C00000D2
:1004B00040E06C2F81E00E94F402CC2311F0C15087
:0E04C000E9CF60E081E00E94F702CF9108953D
:1004CE008430B8F4813051F028F0823059F0833006
:1004DE0069F008958BB380958BBB089588B3809592
:1004EE0088BB089585B3809585BB089582B38095AA
:0404FE0082BB089520
:10050200CF93C0E00FC041E06C2F81E00E94F40263
:100512002FE78AE196E0215080409040E1F700C049
:100522000000CF5FC83078F360E081E00E94F702FC
:04053200CF910895C8
:10053600843098F4813049F028F0823049F08330D5
:1005460051F008958FEF8ABB08958FEF87BB08950A
:0C0556008FEF84BB08958FEF81BB0895E8
:10056200843078F4813041F028F0823039F08330E1
:1005720039F008956BBB089568BB089565BB089573
:0405820062BB0895BB
:1005860081E00E94F1022FEF84E39CE0215080403D
:0A0596009040E1F700C00000089556
:1005A000CF93C82F6FEF0E949B0260E08C2F0E94B8
:0605B000B102CF91089595
:1005B600EC010E94FF020E94FE02CE010E9400038F
:0605C600CE010E94FC02C0
:0C05CC00EE0FFF1F0590F491E02D099444
:0A05D8000E94D7010E94000208955E
:0605E2000E94670208956B
:0605E8000E94B40008951A
:0605EE000E94B102089515
:0405F4000C94000063
:0405F8000E943C0021
:0205FC00089560
:0205FE0008955E
:0206000008955B
:00000001FF
