:100000000C942A000C94D5030C94D5030C94D503BE
:100010000C94D5030C94D5030C94D5030C94D50300
:100020000C94D5030C94D5030C94D5030C94D503F0
:100030000C94D5030C94D5030C94D5030C94D503E0
:100040000C94D5030C94D5030C94D5030C94D503D0
:100050000C94D50311241FBECFE5D8E0DEBFCDBF81
:0C0060000E9442000C94B903F894FFCFFA
:10006C00436C6F636B7769736500416E7469636C85
:08007C006F636B776973650087
:1000840060E082E00E94CE0361E082E00E94CE0341
:1000940062E082E00E94CE030E9498020E948503DF
:1000A40060E082E00E94D203813089F58FEC97E012
:1000B4000197F1F700C0000060E082E00E94D203E3
:1000C400C82F60E082E00E94D203813001F505C0B0
:1000D40060E082E00E94D203C82FC130C9F361E01E
:1000E40080E00E94AC036CE670E080E00E94540360
:1000F40062E082E00E94D20306C00E94230262E012
:1001040082E00E94D2038823C1F30E94C40361E009
:1001140082E00E94D203813019F68FEC97E00197B8
:10012400F1F700C0000061E082E00E94D203C82F12
:1001340061E082E00E94D203813009F0B1CF05C0B2
:1001440061E082E00E94D203C82FC130C9F361E0AC
:1001540080E00E94AC0366E770E080E00E945403F4
:1001640062E082E00E94D20306C00E94AE0162E017
:1001740082E00E94D2038823C1F30E94C40390CF7B
:10018400843008F072C0683008F06FC0423008F064
:100194006CC0813001F130F08230B1F1833009F468
:1001A4004CC00895413059F42AB381E090E002C074
:1001B400880F991F6A95E2F7822B8ABB08952AB3A8
:1001C40081E090E002C0880F991F6A95E2F780955C
:1001D40082238ABB0895413059F427B381E090E02B
:1001E40002C0880F991F6A95E2F7822B87BB089596
:1001F40027B381E090E002C0880F991F6A95E2F767
:100204008095822387BB0895413059F424B381E05B
:1002140090E002C0880F991F6A95E2F7822B84BB95
:10022400089524B381E090E002C0880F991F6A9575
:10023400E2F78095822384BB0895413059F421B3B9
:1002440081E090E002C0880F991F6A95E2F7822B43
:1002540081BB089521B381E090E002C0880F991F0B
:0C0264006A95E2F78095822381BB089523
:10027000843008F072C0683008F06FC0423008F077
:100280006CC0813001F130F08230B1F1833009F47B
:100290004CC00895413059F42BB381E090E002C086
:1002A000880F991F6A95E2F7822B8BBB08952BB3B9
:1002B00081E090E002C0880F991F6A95E2F780956F
:1002C00082238BBB0895413059F428B381E090E03C
:1002D00002C0880F991F6A95E2F7822B88BB0895A8
:1002E00028B381E090E002C0880F991F6A95E2F779
:1002F0008095822388BB0895413059F425B381E06D
:1003000090E002C0880F991F6A95E2F7822B85BBA7
:10031000089525B381E090E002C0880F991F6A9587
:10032000E2F78095822385BB0895413059F422B3CA
:1003300081E090E002C0880F991F6A95E2F7822B56
:1003400082BB089522B381E090E002C0880F991F1C
:0C0350006A95E2F78095822382BB089535
:10035C0041E060E083E00E94380140E061E083E02E
:10036C000E94380140E062E083E00E94380140E0E6
:10037C0063E083E00E9438012FEF80E792E0215088
:10038C0080409040E1F700C0000040E060E083E076
:10039C000E94380141E061E083E00E94380140E0B6
:1003AC0062E083E00E94380140E063E083E00E9459
:1003BC0038012FEF80E792E0215080409040E1F728
:1003CC0000C0000040E060E083E00E94380140E0A3
:1003DC0061E083E00E94380141E062E083E00E942A
:1003EC00380140E063E083E00E9438012FEF80E7A2
:1003FC0092E0215080409040E1F700C0000040E0C6
:10040C0060E083E00E94380140E061E083E00E94FC
:10041C00380140E062E083E00E94380141E063E093
:10042C0083E00E9438012FEF80E792E0215080405A
:0A043C009040E1F700C000000895B1
:1004460040E060E083E00E94380140E061E083E044
:100456000E94380140E062E083E00E94380141E0FA
:1004660063E083E00E9438012FEF80E792E021509D
:1004760080409040E1F700C0000040E060E083E08B
:100486000E94380140E061E083E00E94380141E0CB
:1004960062E083E00E94380140E063E083E00E946E
:1004A60038012FEF80E792E0215080409040E1F73D
:1004B60000C0000040E060E083E00E94380141E0B7
:1004C60061E083E00E94380140E062E083E00E9440
:1004D600380140E063E083E00E9438012FEF80E7B7
:1004E60092E0215080409040E1F700C0000041E0DA
:1004F60060E083E00E94380140E061E083E00E9412
:10050600380140E062E083E00E94380140E063E0A9
:1005160083E00E9438012FEF80E792E0215080406F
:0A0526009040E1F700C000000895C6
:1005300041E060E081E00E94C20041E061E081E0D2
:100540000E94C20041E062E081E00E94C2006FEFC1
:1005500080E00E946F032FEB8AED90E021508040F5
:100560009040E1F700C0000088E30E94080325E8FE
:100570002A95F1F700008FE00E94080385E88A952C
:10058000F1F7000081E00E9408038FE99FE00197E6
:10059000F1F700C0000086E00E94080395E89A95F4
:0605A000F1F700000895D0
:1005A600843078F5683078F5813079F028F082303B
:1005B600A9F08330E1F024C089B390E002C095959C
:1005C60087956A95E2F78170089586B390E002C038
:1005D600959587956A95E2F78170089583B390E0C3
:1005E60002C0959587956A95E2F78170089580B364
:1005F60090E002C0959587956A95E2F78170089517
:0A060600089581E0089582E0089550
:10061000CF93C82F40E060E081E00E94380140E0C5
:1006200061E081E00E9438016C2F80E00E949A0313
:1006300041E062E081E00E94380182E08A95F1F7B2
:1006400000C040E062E081E00E9438018FEC97E05A
:0C0650000197F1F700C00000CF91089561
:10065C00CF93C82F41E060E081E00E94380140E078
:10066C0061E081E00E9438016C2F80E00E949A03C7
:10067C0041E062E081E00E94380182E08A95F1F766
:10068C0000C040E062E081E00E9438018FE19EE40E
:0C069C000197F1F700C00000CF91089515
:1006A800CF92DF92EF92CF936B01E82EC0E003C0A8
:1006B8000E942E03CF5FAE2DC6018C0F911DA11D88
:1006C800FC018491A7FD80818111F2CFCF91EF9039
:0606D800DF90CF900895B1
:1006DE00843098F4813049F028F0823049F083302C
:1006EE0051F008958FEF8ABB08958FEF87BB089561
:0C06FE008FEF84BB08958FEF81BB08953F
:10070A0041E060E083E00E94C20041E061E083E0F2
:10071A000E94C20041E062E083E00E94C20041E020
:0A072A0063E083E00E94C20008951E
:10073400843078F4813041F028F0823039F083300D
:1007440039F008956BBB089568BB089565BB08959F
:0407540062BB0895E7
:10075800613019F0623029F0089580580E9408032A
:0A076800089580540E9408030895CC
:10077200EC010E94DA030E94D903CE010E94DB033E
:06078200CE010E94D70326
:1007880081E00E9408038FE99FE00197F1F700C01C
:0407980000000895C0
:08079C0040E00E94C200089534
:0607A4000E94D30208953B
:0407AA000C940000AB
:0407AE000E94340071
:0207B2000895A8
:0207B4000895A6
:0207B6000895A4
:00000001FF
