:100000000C9434000C9494020C9494020C9494027A
:100010000C9494020C9494020C9494020C94940208
:100020000C9494020C9494020C9494020C949402F8
:100030000C9494020C9494020C9494020C949402E8
:100040000C9494020C9494020C9494020C949402D8
:100050000C949402E501B801BD01C201C701CC01B5
:10006000D101D601DB01E00111241FBECFE5D8E0AC
:10007000DEBFCDBF0E94A7010C948002F894FFCF91
:100080003738392F3435362A3132332D43303D2B32
:040090000405060756
:040094000001020362
:10009800843008F072C0683008F06FC0423008F051
:1000A8006CC0813001F130F08230B1F1833009F455
:1000B8004CC00895413059F42AB381E090E002C061
:1000C800880F991F6A95E2F7822B8ABB08952AB395
:1000D80081E090E002C0880F991F6A95E2F7809549
:1000E80082238ABB0895413059F427B381E090E018
:1000F80002C0880F991F6A95E2F7822B87BB089583
:1001080027B381E090E002C0880F991F6A95E2F753
:100118008095822387BB0895413059F424B381E048
:1001280090E002C0880F991F6A95E2F7822B84BB82
:10013800089524B381E090E002C0880F991F6A9562
:10014800E2F78095822384BB0895413059F421B3A6
:1001580081E090E002C0880F991F6A95E2F7822B30
:1001680081BB089521B381E090E002C0880F991FF8
:0C0178006A95E2F78095822381BB089510
:10018400843008F072C0683008F06FC0423008F064
:100194006CC0813001F130F08230B1F1833009F468
:1001A4004CC00895413059F42BB381E090E002C073
:1001B400880F991F6A95E2F7822B8BBB08952BB3A6
:1001C40081E090E002C0880F991F6A95E2F780955C
:1001D40082238BBB0895413059F428B381E090E029
:1001E40002C0880F991F6A95E2F7822B88BB089595
:1001F40028B381E090E002C0880F991F6A95E2F766
:100204008095822388BB0895413059F425B381E059
:1002140090E002C0880F991F6A95E2F7822B85BB94
:10022400089525B381E090E002C0880F991F6A9574
:10023400E2F78095822385BB0895413059F422B3B7
:1002440081E090E002C0880F991F6A95E2F7822B43
:1002540082BB089522B381E090E002C0880F991F09
:0C0264006A95E2F78095822382BB089522
:10027000AF92BF92CF92DF92EF920F931F93CF93E3
:10028000DF93D12C55C0AD2CB12CC5010B2C000C2B
:10029000AA0B8C569F4FAF4FFC01C490A7FDC080A6
:1002A00040E06C2D82E00E94C20010E039C0C12FF6
:1002B000D0E0CE010D2E000CAA0B80579F4FAF4F00
:1002C000FC01E490A7FDE0806E2D82E00E94EA012F
:1002D000811125C08FE493EC0197F1F700C0000075
:1002E0006E2D82E00E94EA01811119C004C06E2DBA
:1002F00082E00E94EA018823D1F38501000F111FDB
:10030000000F111FC00FD11FCE01DD0FAA0B8058A7
:100310009F4FAF4FFC018491A7FD80810EC01F5FEE
:10032000143028F241E06C2D82E00E94C200D39488
:1003300093E09D1508F0A7CF80E0DF91CF911F914A
:0E0340000F91EF90DF90CF90BF90AF90089597
:10034E0080E00E9475020E941F020E94380190E018
:10035E00FC01F097EA30F105C0F7E65DFF4F0C9413
:10036E008B0266E080E00E949102EFCF6BE580E0A9
:10037E000E949102EACF6FE480E00E949102E5CFE5
:10038E0066E680E00E949102E0CF6DE680E00E947A
:10039E009102DBCF6DE780E00E949102D6CF67E03D
:1003AE0080E00E949102D1CF6FE780E00E9491021F
:1003BE00CCCF6FE680E00E949102C7CF6FE380E062
:0603CE000E949102C2CF63
:1003D400843078F5683078F5813079F028F082300F
:1003E400A9F08330E1F024C089B390E002C0959570
:1003F40087956A95E2F78170089586B390E002C00C
:10040400959587956A95E2F78170089583B390E096
:1004140002C0959587956A95E2F78170089580B337
:1004240090E002C0959587956A95E2F781700895EA
:0A043400089581E0089582E0089524
:10043E00CF93C0E023C0C43078F48C2F90E0A0E0BE
:10044E008C569F4FAF4FFC016491A7FD608141E038
:10045E0082E00E944C0011C08C2F90E00497092E70
:10046E00000CAA0B80579F4FAF4FFC016491A7FD64
:10047E00608140E082E00E944C00CF5FC830D8F22D
:0C048E006FEF82E00E946302CF9108959E
:10049A00843098F4813049F028F0823049F0833072
:1004AA0051F008958FEF8ABB08958FEF87BB0895A7
:0C04BA008FEF84BB08958FEF81BB089585
:1004C600843078F4813041F028F0823039F083307E
:1004D60039F008956BBB089568BB089565BB089510
:0404E60062BB089558
:1004EA00CF93C82F6FEF0E944D0260E08C2F0E94BD
:0604FA006302CF9108959A
:10050000EC010E9499020E949802CE010E949A0278
:06051000CE010E949602DC
:0C051600EE0FFF1F0590F491E02D0994FA
:060522000E94630208952F
:040528000C9400002F
:04052C000E943E00EB
:0205300008952C
:0205320008952A
:02053400089528
:00000001FF
