:100000000C9437000C94E6020C94E6020C94E60281
:100010000C94E6020C94E6020C94E6020C94E602C0
:100020000C94E6020C94E6020C94E6020C94E602B0
:100030000C94E6020C94E6020C94E6020C94E602A0
:100040000C94E6020C94E6020C94E6020C94E60290
:100050000C94E60286018A018E01920196019A01B2
:100060009E01A201A601AA01006000618000112486
:100070001FBECFE5D8E0DEBFCDBFE8E6F0E040E050
:1000800017C0B591A59135912591059107FD0CC03B
:1000900095918591EF01F92FE82F05900D92A21708
:1000A000B307D9F7FE0104C01D92A217B307E1F709
:1000B000ED36F40731F70E94ED010C94C802F89474
:0200C000FFCF70
:1000C200843008F072C0683008F06FC0423008F027
:1000D2006CC0813001F130F08230B1F1833009F42B
:1000E2004CC00895413059F42AB381E090E002C037
:1000F200880F991F6A95E2F7822B8ABB08952AB36B
:1001020081E090E002C0880F991F6A95E2F780951E
:1001120082238ABB0895413059F427B381E090E0ED
:1001220002C0880F991F6A95E2F7822B87BB089558
:1001320027B381E090E002C0880F991F6A95E2F729
:100142008095822387BB0895413059F424B381E01E
:1001520090E002C0880F991F6A95E2F7822B84BB58
:10016200089524B381E090E002C0880F991F6A9538
:10017200E2F78095822384BB0895413059F421B37C
:1001820081E090E002C0880F991F6A95E2F7822B06
:1001920081BB089521B381E090E002C0880F991FCE
:0C01A2006A95E2F78095822381BB0895E6
:1001AE00843008F072C0683008F06FC0423008F03A
:1001BE006CC0813001F130F08230B1F1833009F43E
:1001CE004CC00895413059F42BB381E090E002C049
:1001DE00880F991F6A95E2F7822B8BBB08952BB37C
:1001EE0081E090E002C0880F991F6A95E2F7809532
:1001FE0082238BBB0895413059F428B381E090E0FF
:10020E0002C0880F991F6A95E2F7822B88BB08956A
:10021E0028B381E090E002C0880F991F6A95E2F73B
:10022E008095822388BB0895413059F425B381E02F
:10023E0090E002C0880F991F6A95E2F7822B85BB6A
:10024E00089525B381E090E002C0880F991F6A954A
:10025E00E2F78095822385BB0895413059F422B38D
:10026E0081E090E002C0880F991F6A95E2F7822B19
:10027E0082BB089522B381E090E002C0880F991FDF
:0C028E006A95E2F78095822382BB0895F8
:10029A000F931F93CF93DF9300D0CDB7DEB71A82A7
:1002AA00198210E018C0E1E0F0E0EC0FFD1FE10F49
:1002BA00F11D97E68902912D11249595959587FD53
:1002CA009395392F330F232F220F220F230F821BCF
:1002DA008083892F1F5F8111E6CF81E000E03AC059
:1002EA00E1E0F0E0EC0FFD1FE00FF11DE0814E2F81
:1002FA0050E04A30510560F5FA01E65DFF4F0C9473
:10030A00D3026FE30E94DD0223C066E00E94DD0291
:10031A001FC06BE50E94DD021BC06FE40E94DD0274
:10032A0017C066E60E94DD0213C06DE60E94DD0278
:10033A000FC06DE70E94DD020BC067E00E94DD027C
:10034A0007C06FE70E94DD0203C06FE60E94DD026C
:10035A000F5F82E0011720F20F900F90DF91CF918B
:06036A001F910F910895A0
:10037000843078F5683078F5813079F028F0823073
:10038000A9F08330E1F024C089B390E002C09595D4
:1003900087956A95E2F78170089586B390E002C070
:1003A000959587956A95E2F78170089583B390E0FB
:1003B00002C0959587956A95E2F78170089580B39C
:1003C00090E002C0959587956A95E2F7817008954F
:0A03D000089581E0089582E0089589
:1003DA0060E080E00E94AE0261E080E00E94AE022E
:1003EA0081E00E94BD0282E00E94BD0262E080E0DC
:1003FA000E94D90263E080E00E94D9026FE381E0A3
:10040A000E94DD026FE382E00E94DD020E94220266
:10041A002FEF80E792E0215080409040E1F700C042
:10042A0000000E9447022FEF80E792E021508040AF
:0A043A009040E1F700C00000E9CF98
:1004440062E080E00E94E3028130E1F48FE493EC07
:100454000197F1F700C0000062E080E00E94E3022F
:10046400813081F404C062E080E00E94E3028130C4
:10047400D1F38091600089312CF48F5F8093600008
:0A0484000E944D010E946C020895D1
:10048E0063E080E00E94E3028130E1F48FE493ECBC
:10049E000197F1F700C0000063E080E00E94E302E4
:1004AE00813081F404C063E080E00E94E302813079
:1004BE00D1F38091600018162CF481508093600067
:0A04CE000E944D010E946C02089587
:1004D80080916000893159F441E060E080E00E9439
:1004E800E00240E061E080E00E94E002089541E01F
:1004F80061E080E00E94E00240E060E080E00E946D
:04050800E002089570
:10050C00843098F4813049F028F0823049F08330FF
:10051C0051F008958FEF8ABB08958FEF87BB089534
:0C052C008FEF84BB08958FEF81BB089512
:10053800843078F4813041F028F0823039F083300B
:1005480039F008956BBB089568BB089565BB08959D
:0405580062BB0895E5
:10055C00CF93DF93C82FD62F41E00E94610040E07B
:0E056C006D2F8C2F0E94D700DF91CF91089544
:10057A00CF93C82F6FEF0E94860260E08C2F0E94F3
:06058A009C02CF910895D0
:10059000EC010E94EB020E94EA02CE010E94EC02F2
:0605A000CE010E94E802FA
:0C05A600EE0FFF1F0590F491E02D09946A
:0805B20040E00E946100089581
:0605BA000E949C0208955E
:0605C0000E94D70008951F
:0605C6000E94B801089537
:0405CC000C9400008B
:0405D0000E945F0026
:0205D400089588
:0205D600089586
:0205D800089584
:00000001FF
