:100000000C942A000C945E010C945E010C945E0129
:100010000C945E010C945E010C945E010C945E01E4
:100020000C945E010C945E010C945E010C945E01D4
:100030000C945E010C945E010C945E010C945E01C4
:100040000C945E010C945E010C945E010C945E01B4
:100050000C945E0111241FBECFE5D8E0DEBFCDBFFA
:0C0060000E9422010C945301F894FFCF81
:10006C00843008F072C0683008F06FC0423008F07D
:10007C006CC0813001F130F08230B1F1833009F481
:10008C004CC00895413059F42AB381E090E002C08D
:10009C00880F991F6A95E2F7822B8ABB08952AB3C1
:1000AC0081E090E002C0880F991F6A95E2F7809575
:1000BC0082238ABB0895413059F427B381E090E044
:1000CC0002C0880F991F6A95E2F7822B87BB0895AF
:1000DC0027B381E090E002C0880F991F6A95E2F780
:1000EC008095822387BB0895413059F424B381E075
:1000FC0090E002C0880F991F6A95E2F7822B84BBAF
:10010C00089524B381E090E002C0880F991F6A958E
:10011C00E2F78095822384BB0895413059F421B3D2
:10012C0081E090E002C0880F991F6A95E2F7822B5C
:10013C0081BB089521B381E090E002C0880F991F24
:0C014C006A95E2F78095822381BB08953C
:10015800843008F072C0683008F06FC0423008F090
:100168006CC0813001F130F08230B1F1833009F494
:100178004CC00895413059F42BB381E090E002C09F
:10018800880F991F6A95E2F7822B8BBB08952BB3D2
:1001980081E090E002C0880F991F6A95E2F7809588
:1001A80082238BBB0895413059F428B381E090E055
:1001B80002C0880F991F6A95E2F7822B88BB0895C1
:1001C80028B381E090E002C0880F991F6A95E2F792
:1001D8008095822388BB0895413059F425B381E086
:1001E80090E002C0880F991F6A95E2F7822B85BBC1
:1001F800089525B381E090E002C0880F991F6A95A1
:10020800E2F78095822385BB0895413059F422B3E3
:1002180081E090E002C0880F991F6A95E2F7822B6F
:1002280082BB089522B381E090E002C0880F991F35
:0C0238006A95E2F78095822382BB08954E
:1002440041E060E080E00E94360041E061E080E04F
:100254000E94360041E060E080E00E94AC0040E093
:1002640061E080E00E94AC002FEF89E698E1215024
:1002740080409040E1F700C0000040E060E080E092
:100284000E94AC0041E061E080E00E94AC002FEFEE
:1002940089E698E1215080409040E1F700C00000D9
:0202A400D9CFB0
:1002A600EC010E9463010E946201CE010E9464017A
:0602B600CE010E94600170
:0402BC000C9400009E
:0402C0000E94340064
:0202C40008959B
:0202C600089599
:0202C800089597
:00000001FF
