:100000000C942A000C9443020C9443020C94430277
:100010000C9443020C9443020C9443020C9443024C
:100020000C9443020C9443020C9443020C9443023C
:100030000C9443020C9443020C9443020C9443022C
:100040000C9443020C9443020C9443020C9443021C
:100050000C94430211241FBECFE5D8E0DEBFCDBF14
:0C0060000E9427020C943402F894FFCF99
:10006C003738392F3435362A3132332D43303D2B46
:04007C00040506076A
:040080000001020376
:10008400843008F072C0683008F06FC0423008F065
:100094006CC0813001F130F08230B1F1833009F469
:1000A4004CC00895413059F42AB381E090E002C075
:1000B400880F991F6A95E2F7822B8ABB08952AB3A9
:1000C40081E090E002C0880F991F6A95E2F780955D
:1000D40082238ABB0895413059F427B381E090E02C
:1000E40002C0880F991F6A95E2F7822B87BB089597
:1000F40027B381E090E002C0880F991F6A95E2F768
:100104008095822387BB0895413059F424B381E05C
:1001140090E002C0880F991F6A95E2F7822B84BB96
:10012400089524B381E090E002C0880F991F6A9576
:10013400E2F78095822384BB0895413059F421B3BA
:1001440081E090E002C0880F991F6A95E2F7822B44
:1001540081BB089521B381E090E002C0880F991F0C
:0C0164006A95E2F78095822381BB089524
:10017000843008F072C0683008F06FC0423008F078
:100180006CC0813001F130F08230B1F1833009F47C
:100190004CC00895413059F42BB381E090E002C087
:1001A000880F991F6A95E2F7822B8BBB08952BB3BA
:1001B00081E090E002C0880F991F6A95E2F7809570
:1001C00082238BBB0895413059F428B381E090E03D
:1001D00002C0880F991F6A95E2F7822B88BB0895A9
:1001E00028B381E090E002C0880F991F6A95E2F77A
:1001F0008095822388BB0895413059F425B381E06E
:1002000090E002C0880F991F6A95E2F7822B85BBA8
:10021000089525B381E090E002C0880F991F6A9588
:10022000E2F78095822385BB0895413059F422B3CB
:1002300081E090E002C0880F991F6A95E2F7822B57
:1002400082BB089522B381E090E002C0880F991F1D
:0C0250006A95E2F78095822382BB089536
:10025C00AF92BF92CF92DF92EF920F931F93CF93F7
:10026C00DF93D12C55C0AD2CB12CC5010B2C000C3F
:10027C00AA0B80589F4FAF4FFC01C490A7FDC080C4
:10028C0040E06C2D82E00E94B80010E039C0C12F14
:10029C00D0E0CE010D2E000CAA0B84589F4FAF4F0F
:1002AC00FC01E490A7FDE0806E2D82E00E949D0190
:1002BC00811125C08FE493EC0197F1F700C0000089
:1002CC006E2D82E00E949D01811119C004C06E2D1B
:1002DC0082E00E949D018823D1F38501000F111F3C
:1002EC00000F111FC00FD11FCE01DD0FAA0B8459B7
:1002FC009F4FAF4FFC018491A7FD80810EC01F5F03
:10030C00143028F241E06C2D82E00E94B800D394A6
:10031C0093E09D1508F0A7CF80E0DF91CF911F915E
:0E032C000F91EF90DF90CF90BF90AF900895AB
:10033A00843078F5683078F5813079F028F08230A9
:10034A00A9F08330E1F024C089B390E002C095950A
:10035A0087956A95E2F78170089586B390E002C0A6
:10036A00959587956A95E2F78170089583B390E031
:10037A0002C0959587956A95E2F78170089580B3D2
:10038A0090E002C0959587956A95E2F78170089585
:0A039A00089581E0089582E00895BF
:1003A400CF93C0E023C0C43078F48C2F90E0A0E059
:1003B40080589F4FAF4FFC016491A7FD608141E0DD
:1003C40082E00E94420011C08C2F90E00497092E15
:1003D400000CAA0B84589F4FAF4FFC016491A7FDFA
:1003E400608140E082E00E944200CF5FC830D8F2D2
:0C03F4006FEF82E00E941502CF91089587
:1004000083E389B910BC8BB18D7F8BB98BB18E7FA3
:100410008BB98AB180618AB98AB188608AB98AB198
:0A0420008B7F8AB98EE880BD089535
:10042A00843078F4813041F028F0823039F083301A
:10043A0039F008956BBB089568BB089565BB0895AC
:04044A0062BB0895F4
:10044E000E9400020E94D2010E942E0190ED980F90
:0A045E009A30D0F70E943F02F7CF5A
:10046800EC010E9448020E944702CE010E94490204
:06047800CE010E944502C6
:08047E005D9BFECF8CB90895CF
:040486000C940000D2
:04048A000E94340098
:02048E000895CF
:020490000895CD
:020492000895CB
:00000001FF
