:100000000C942D000C9463040C9463040C9463040E
:100010000C9463040C9463040C9463040C946304C4
:100020000C9463040C9463040C9463040C946304B4
:100030000C9463040C9463040C9463040C946304A4
:100040000C9463040C9463040C9463040C94630494
:100050000C94630400600062800011241FBECFE591
:10006000D8E0DEBFCDBFE4E5F0E040E017C0B591D9
:10007000A59135912591059107FD0CC0959185912C
:10008000EF01F92FE82F05900D92A217B307D9F7CA
:10009000FE0104C01D92A217B307E1F7E935F4078A
:0E00A00031F70E9447030C944704F894FFCFF9
:1000AE0053746570706572204D6F746F7200436C7F
:1000BE006F636B7769736500416E7469636C6F6310
:0F00CE006B77697365004443204D6F746F720048
:1000DE00843008F072C0683008F06FC0423008F00B
:1000EE006CC0813001F130F08230B1F1833009F40F
:1000FE004CC00895413059F42AB381E090E002C01B
:10010E00880F991F6A95E2F7822B8ABB08952AB34E
:10011E0081E090E002C0880F991F6A95E2F7809502
:10012E0082238ABB0895413059F427B381E090E0D1
:10013E0002C0880F991F6A95E2F7822B87BB08953C
:10014E0027B381E090E002C0880F991F6A95E2F70D
:10015E008095822387BB0895413059F424B381E002
:10016E0090E002C0880F991F6A95E2F7822B84BB3C
:10017E00089524B381E090E002C0880F991F6A951C
:10018E00E2F78095822384BB0895413059F421B360
:10019E0081E090E002C0880F991F6A95E2F7822BEA
:1001AE0081BB089521B381E090E002C0880F991FB2
:0C01BE006A95E2F78095822381BB0895CA
:1001CA00843008F072C0683008F06FC0423008F01E
:1001DA006CC0813001F130F08230B1F1833009F422
:1001EA004CC00895413059F42BB381E090E002C02D
:1001FA00880F991F6A95E2F7822B8BBB08952BB360
:10020A0081E090E002C0880F991F6A95E2F7809515
:10021A0082238BBB0895413059F428B381E090E0E2
:10022A0002C0880F991F6A95E2F7822B88BB08954E
:10023A0028B381E090E002C0880F991F6A95E2F71F
:10024A008095822388BB0895413059F425B381E013
:10025A0090E002C0880F991F6A95E2F7822B85BB4E
:10026A00089525B381E090E002C0880F991F6A952E
:10027A00E2F78095822385BB0895413059F422B371
:10028A0081E090E002C0880F991F6A95E2F7822BFD
:10029A0082BB089522B381E090E002C0880F991FC3
:0C02AA006A95E2F78095822382BB0895DC
:1002B60041E060E083E00E94E50040E061E083E029
:1002C6000E94E50040E062E083E00E94E50040E035
:1002D60063E083E00E94E5002FEF80E792E0215083
:1002E60080409040E1F700C0000040E060E083E01D
:1002F6000E94E50041E061E083E00E94E50040E005
:1003060062E083E00E94E50040E063E083E00E9453
:10031600E5002FEF80E792E0215080409040E1F722
:1003260000C0000040E060E083E00E94E50040E09D
:1003360061E083E00E94E50041E062E083E00E9424
:10034600E50040E063E083E00E94E5002FEF80E7F0
:1003560092E0215080409040E1F700C0000040E06C
:1003660060E083E00E94E50040E061E083E00E94F7
:10037600E50040E062E083E00E94E50041E063E0E2
:1003860083E00E94E5002FEF80E792E02150804055
:0A0396009040E1F700C00000089558
:1003A00040E060E083E00E94E50040E061E083E03F
:1003B0000E94E50040E062E083E00E94E50041E049
:1003C00063E083E00E94E5002FEF80E792E0215098
:1003D00080409040E1F700C0000040E060E083E032
:1003E0000E94E50040E061E083E00E94E50041E01A
:1003F00062E083E00E94E50040E063E083E00E9469
:10040000E5002FEF80E792E0215080409040E1F737
:1004100000C0000040E060E083E00E94E50041E0B1
:1004200061E083E00E94E50040E062E083E00E943A
:10043000E50040E063E083E00E94E5002FEF80E705
:1004400092E0215080409040E1F700C0000041E080
:1004500060E083E00E94E50040E061E083E00E940C
:10046000E50040E062E083E00E94E50040E063E0F8
:1004700083E00E94E5002FEF80E792E0215080406A
:0A0480009040E1F700C0000008956D
:10048A0063E082E00E946004813031F5809160006F
:10049A008130B9F081E0809360000E94520461E0EB
:1004AA0080E00E943A0464ED70E080E00E94E2037A
:1004BA0062E080E00E943A046CEB70E080E00E9407
:1004CA00E20341E066E081E00E94E50040E067E087
:1004DA0081E00E94E5000895809160008823B1F0D0
:1004EA00109260000E94520461E080E00E943A0487
:1004FA0064ED70E080E00E94E20362E080E00E9426
:10050A003A0466EC70E080E00E94E20340E066E0B4
:10051A0081E00E94E50041E067E081E00E94E50099
:02052A00089532
:10052C0060E082E00E9460048130F1F4809161000F
:10053C008130B9F081E0809361000E94520461E047
:10054C0080E00E943A046EEA70E080E00E94E203D0
:10055C0062E080E00E943A046CEB70E080E00E9464
:10056C00E2030E94D0010895809161008823B1F0CC
:10057C00109261000E94520461E080E00E943A04F3
:10058C006EEA70E080E00E94E20362E080E00E948C
:10059C003A0466EC70E080E00E94E2030E945B018A
:0205AC000895B0
:1005AE0041E060E081E00E946F0041E061E081E0A7
:1005BE000E946F0041E062E081E00E946F006FEFE9
:1005CE0080E00E94FD032FEB8AED90E021508040E9
:1005DE009040E1F700C0000088E30E94780325E810
:1005EE002A95F1F700008FE00E94780385E88A953E
:1005FE00F1F7000081E00E9478038FE99FE00197F8
:10060E00F1F700C0000086E00E94780395E89A9505
:06061E00F1F70000089551
:10062400843078F5683078F5813079F028F08230BC
:10063400A9F08330E1F024C089B390E002C095951D
:1006440087956A95E2F78170089586B390E002C0B9
:10065400959587956A95E2F78170089583B390E044
:1006640002C0959587956A95E2F78170089580B3E5
:1006740090E002C0959587956A95E2F78170089598
:0A068400089581E0089582E00895D2
:10068E0060E082E00E945C0462E082E00E945C0412
:10069E0063E082E00E945C040E94D7020E94130471
:1006AE0041E066E081E00E946F0041E067E081E09A
:1006BE000E946F0062E082E00E946004813061F46B
:1006CE0040E066E00E94E50040E067E081E00E94C5
:1006DE00E5000E949602EECF0E94C4030E944502DE
:0206EE00E9CF52
:1006F000CF93C82F40E060E081E00E94E50040E039
:1007000061E081E00E94E5006C2F80E00E942804F7
:1007100041E062E081E00E94E50082E08A95F1F725
:1007200000C040E062E081E00E94E5008FEC97E0CD
:0C0730000197F1F700C00000CF91089580
:10073C00CF93C82F41E060E081E00E94E50040E0EB
:10074C0061E081E00E94E5006C2F80E00E942804AB
:10075C0041E062E081E00E94E50082E08A95F1F7D9
:10076C0000C040E062E081E00E94E5008FE19EE481
:0C077C000197F1F700C00000CF91089534
:1007880040E060E083E00E94E50040E061E083E053
:100798000E94E50040E062E083E00E94E50040E05E
:1007A80063E083E00E94E5002FEF80E792E02150AC
:0C07B80080409040E1F700C00000089570
:1007C400CF92DF92EF92CF936B01E82EC0E003C08B
:1007D4000E949E03CF5FAE2DC6018C0F911DA11DFB
:1007E400FC018491A7FD80818111F2CFCF91EF901C
:0607F400DF90CF90089594
:1007FA00843098F4813049F028F0823049F083300F
:10080A0051F008958FEF8ABB08958FEF87BB089543
:0C081A008FEF84BB08958FEF81BB089521
:1008260041E060E083E00E946F0041E061E083E028
:100836000E946F0041E062E083E00E946F0041E0A9
:0A08460063E083E00E946F00089554
:10085000843078F4813041F028F0823039F08330F0
:1008600039F008956BBB089568BB089565BB089582
:0408700062BB0895CA
:10087400613019F0623029F0089580580E9478039D
:0A088400089580540E94780308953F
:10088E00EC010E9468040E946704CE010E94690474
:06089E00CE010E9465047A
:1008A40081E00E9478038FE99FE00197F1F700C08F
:0408B40000000895A3
:0808B80040E00E946F0008956A
:0608C0000E9412030895DE
:0408C6000C9400008E
:0408CA000E94550033
:0208CE0008958B
:0208D000089589
:0208D200089587
:00000001FF
