:100000000C942A000C943A020C943A020C943A0292
:100010000C943A020C943A020C943A020C943A0270
:100020000C943A020C943A020C943A020C943A0260
:100030000C943A020C943A020C943A020C943A0250
:100040000C943A020C943A020C943A020C943A0240
:100050000C943A0211241FBECFE5D8E0DEBFCDBF1D
:0C0060000E94E7010C942902F894FFCFE5
:0A006C003F065B4F666D7D077F6F56
:10007600843008F072C0683008F06FC0423008F073
:100086006CC0813001F130F08230B1F1833009F477
:100096004CC00895413059F42AB381E090E002C083
:1000A600880F991F6A95E2F7822B8ABB08952AB3B7
:1000B60081E090E002C0880F991F6A95E2F780956B
:1000C60082238ABB0895413059F427B381E090E03A
:1000D60002C0880F991F6A95E2F7822B87BB0895A5
:1000E60027B381E090E002C0880F991F6A95E2F776
:1000F6008095822387BB0895413059F424B381E06B
:1001060090E002C0880F991F6A95E2F7822B84BBA4
:10011600089524B381E090E002C0880F991F6A9584
:10012600E2F78095822384BB0895413059F421B3C8
:1001360081E090E002C0880F991F6A95E2F7822B52
:1001460081BB089521B381E090E002C0880F991F1A
:0C0156006A95E2F78095822381BB089532
:10016200843008F072C0683008F06FC0423008F086
:100172006CC0813001F130F08230B1F1833009F48A
:100182004CC00895413059F42BB381E090E002C095
:10019200880F991F6A95E2F7822B8BBB08952BB3C8
:1001A20081E090E002C0880F991F6A95E2F780957E
:1001B20082238BBB0895413059F428B381E090E04B
:1001C20002C0880F991F6A95E2F7822B88BB0895B7
:1001D20028B381E090E002C0880F991F6A95E2F788
:1001E2008095822388BB0895413059F425B381E07C
:1001F20090E002C0880F991F6A95E2F7822B85BBB7
:10020200089525B381E090E002C0880F991F6A9596
:10021200E2F78095822385BB0895413059F422B3D9
:1002220081E090E002C0880F991F6A95E2F7822B65
:1002320082BB089522B381E090E002C0880F991F2B
:0C0242006A95E2F78095822382BB089544
:10024E008430A8F5683098F5813089F028F0823036
:10025E00C9F0833011F108952BB381E090E002C014
:10026E00880F991F6A95E2F782278BBB089528B3F2
:10027E0081E090E002C0880F991F6A95E2F782270D
:10028E0088BB089525B381E090E002C0880F991FC6
:10029E006A95E2F7822785BB089522B381E090E04C
:1002AE0002C0880F991F6A95E2F7822782BB0895D4
:1002BE00CF9360E080E00E943402C9E08C2F90E082
:1002CE00A0E084599F4FAF4FFC016491A7FD608160
:1002DE0081E00E9437022FEF89E698E1215080409D
:1002EE009040E1F700C00000CC2311F0C150E6CFE2
:0C02FE0060E080E00E943402CF9108957F
:10030A00CF9361E080E00E943402C3E08C2F90E03A
:10031A00A0E084599F4FAF4FFC016491A7FD608113
:10032A0081E00E9437022FEF89E698E12150804050
:10033A009040E1F700C00000CC2311F0C150E6CF95
:0C034A0061E080E00E943402CF91089531
:10035600CF9362E080E00E943402C9E08C2F90E0E7
:10036600A0E084599F4FAF4FFC016491A7FD6081C7
:1003760081E00E9437022FEF89E698E12150804004
:100386009040E1F700C00000CC2311F0C150E6CF49
:0C03960062E080E00E943402CF910895E4
:1003A200843098F4813049F028F0823049F083306B
:1003B20051F008958FEF8ABB08958FEF87BB0895A0
:0C03C2008FEF84BB08958FEF81BB08957E
:1003CE0060E080E00E940F0261E080E00E940F0278
:1003DE0062E080E00E940F0281E00E941E020E94F5
:0C03EE005F010E9485010E94AB01F9CF65
:1003FA00843078F4813041F028F0823039F083304B
:10040A0039F008956BBB089568BB089565BB0895DC
:04041A0062BB089524
:10041E00CF93DF93C82FD62F41E00E943B0040E0E0
:0E042E006D2F8C2F0E94B100DF91CF910895A9
:10043C00CF93C82F6FEF0E94D10160E08C2F0E94E8
:06044C00FD01CF910895AF
:10045200EC010E943F020E943E02CE010E94400235
:06046200CE010E943C02E5
:060468000E942701089527
:06046E000E94FD0108954B
:040474000C940000E4
:040478000E943400AA
:02047C000895E1
:02047E000895DF
:020480000895DD
:00000001FF
