:100000000C9437000C9460020C948C020C94B8028F
:100010000C94A1030C94A1030C94A1030C94A103D0
:100020000C94A1030C94A1030C94A1030C94A103C0
:100030000C94A1030C94A1030C94A1030C94A103B0
:100040000C94A1030C94A1030C94A1030C94A103A0
:100050000C94A10389018D019101950199019D01E4
:10006000A101A501A901AD01006000678000112474
:100070001FBECFE5D8E0DEBFCDBFE8E6F0E040E050
:1000800017C0B591A59135912591059107FD0CC03B
:1000900095918591EF01F92FE82F05900D92A21708
:1000A000B307D9F7FE0104C01D92A217B307E1F709
:1000B000ED36F40731F70E9417020C946E03F894A2
:0200C000FFCF70
:1000C200843008F072C0683008F06FC0423008F027
:1000D2006CC0813001F130F08230B1F1833009F42B
:1000E2004CC00895413059F42AB381E090E002C037
:1000F200880F991F6A95E2F7822B8ABB08952AB36B
:1001020081E090E002C0880F991F6A95E2F780951E
:1001120082238ABB0895413059F427B381E090E0ED
:1001220002C0880F991F6A95E2F7822B87BB089558
:1001320027B381E090E002C0880F991F6A95E2F729
:100142008095822387BB0895413059F424B381E01E
:1001520090E002C0880F991F6A95E2F7822B84BB58
:10016200089524B381E090E002C0880F991F6A9538
:10017200E2F78095822384BB0895413059F421B37C
:1001820081E090E002C0880F991F6A95E2F7822B06
:1001920081BB089521B381E090E002C0880F991FCE
:0C01A2006A95E2F78095822381BB0895E6
:1001AE00843008F072C0683008F06FC0423008F03A
:1001BE006CC0813001F130F08230B1F1833009F43E
:1001CE004CC00895413059F42BB381E090E002C049
:1001DE00880F991F6A95E2F7822B8BBB08952BB37C
:1001EE0081E090E002C0880F991F6A95E2F7809532
:1001FE0082238BBB0895413059F428B381E090E0FF
:10020E0002C0880F991F6A95E2F7822B88BB08956A
:10021E0028B381E090E002C0880F991F6A95E2F73B
:10022E008095822388BB0895413059F425B381E02F
:10023E0090E002C0880F991F6A95E2F7822B85BB6A
:10024E00089525B381E090E002C0880F991F6A954A
:10025E00E2F78095822385BB0895413059F422B38D
:10026E0081E090E002C0880F991F6A95E2F7822B19
:10027E0082BB089522B381E090E002C0880F991FDF
:0C028E006A95E2F78095822382BB0895F8
:10029A001F93CF93DF9300D0CDB7DEB797E68902DD
:1002AA00212D112425952595582F550F550B322FA1
:1002BA00351B330F432F440F440F340F831B382F42
:1002CA00251B2902812D11248595859527FD839566
:1002DA00880F982F990F990F890F281B39832A8322
:1002EA0081E010E03AC0E1E0F0E0EC0FFD1FE10F21
:1002FA00F11DE0814E2F50E04A30510560F5FA01B8
:10030A00E65DFF4F0C948D036FE30E949B0323C0AD
:10031A0066E00E949B031FC06BE50E949B031BC003
:10032A006FE40E949B0317C066E60E949B0313C0FA
:10033A006DE60E949B030FC06DE70E949B030BC0F2
:10034A0067E00E949B0307C06FE70E949B0303C0FC
:10035A006FE60E949B031F5F82E0123020F20F902B
:0A036A000F90DF91CF911F910895CD
:10037400663031F0673041F1653009F055C048C04E
:10038400813069F028F0823089F08330B1F008952B
:1003940085B78E7F85BF85B7826085BF089585B791
:1003A400816085BF85B7826085BF089585B78E7FDC
:1003B40085BF85B78D7F85BF089585B7816085BF6B
:1003C40085B78D7F85BF0895813069F028F082302C
:1003D40089F08330B1F0089585B78B7F85BF85B7E9
:1003E400886085BF089585B7846085BF85B78860B8
:1003F40085BF089585B78B7F85BF85B7877F85BF08
:10040400089585B7846085BF85B7877F85BF0895C4
:10041400882319F0813029F0089584B78F7B84BF35
:0A042400089584B7806484BF089532
:10042E0060E080E00E94490361E080E00E944903A1
:10043E0081E00E94630382E00E9463036FE381E028
:10044E000E949B036FE382E00E949B0362E083E0C5
:10045E000E94970363E083E00E9497030E94930338
:10046E0086E00E94380387E00E94380366E081E050
:10047E000E94BA0167E081E00E94BA0160E089E75C
:10048E0093E00E94580361E083E893E00E945803D2
:10049E0041E066E083E00E94610041E067E083E0B6
:1004AE000E946100809166000E944D010E94E4024C
:0204BE00F9CF74
:1004C0001F920F920FB60F9211242F933F934F93C9
:1004D0005F936F937F938F939F93AF93BF93EF93AC
:1004E000FF93E0916000F0916100309721F0099551
:1004F00086E00E942603FF91EF91BF91AF919F91FB
:100500008F917F916F915F914F913F912F910F90BC
:080510000FBE0F901F9018951B
:100518001F920F920FB60F9211242F933F934F9370
:100528005F936F937F938F939F93AF93BF93EF9353
:10053800FF93E0916200F0916300309721F00995F4
:1005480087E00E942603FF91EF91BF91AF919F91A1
:100558008F917F916F915F914F913F912F910F9064
:080568000FBE0F901F901895C3
:100570001F920F920FB60F9211242F933F934F9318
:100580005F936F937F938F939F93AF93BF93EF93FB
:10059000FF93E0916400F0916500309721F0099598
:1005A00085E00E942603FF91EF91BF91AF919F914B
:1005B0008F917F916F915F914F913F912F910F900C
:0805C0000FBE0F901F9018956B
:1005C80080916600893159F441E060E080E00E9442
:1005D8009E0340E061E080E00E949E03089541E0B0
:1005E80061E080E00E949E0340E060E080E00E94BD
:0405F8009E030895C1
:1005FC00843098F4813049F028F0823049F083300F
:10060C0051F008958FEF8ABB08958FEF87BB089543
:0C061C008FEF84BB08958FEF81BB089521
:10062800843078F4813041F028F0823039F083301A
:1006380039F008956BBB089568BB089565BB0895AC
:0406480062BB0895F4
:10064C009BEF980F933068F44AB721E030E0B90182
:10065C0002C0660F771F8A95E2F7CB018095842341
:04066C008ABF0895A4
:100670009BEF980F933060F44BB721E030E0B90165
:1006800002C0660F771F8A95E2F7CB01842B8BBFE0
:020690000895CB
:10069200CF93DF93C82FD62F41E00E94610040E044
:0E06A2006D2F8C2F0E94D700DF91CF9108950D
:1006B000009741F0E62FF0E0EE0FFF1FE05AFF4FEA
:0606C00091838083089580
:1006C600CF93C82F6FEF0E94FE0260E08C2F0E942E
:0606D6001403CF9108950A
:1006DC00EC010E94A6030E94A503CE010E94A70371
:0606EC00CE010E94A303F1
:1006F2008091660089312CF4809166008F5F80932F
:0407020066000895F0
:100706008091660018162CF48091660081508093C3
:0407160066000895DC
:0C071A00EE0FFF1F0590F491E02D0994F4
:080726008FB780688FBF0895B2
:08072E0040E00E946100089503
:060736000E941403089567
:06073C000E94D7000895A1
:040742000C94000013
:040746000E945F00AE
:02074A00089510
:02074C0008950E
:02074E0008950C
:00000001FF
