:100000000C9437000C944E020C947A020C94A602C5
:100010000C9497030C9497030C9497030C949703F8
:100020000C9497030C9497030C9497030C949703E8
:100030000C9497030C9497030C9497030C949703D8
:100040000C9497030C9497030C9497030C949703C8
:100050000C94970386018A018E01920196019A0100
:100060009E01A201A601AA01006000678000112480
:100070001FBECFE5D8E0DEBFCDBFE8E6F0E040E050
:1000800017C0B591A59135912591059107FD0CC03B
:1000900095918591EF01F92FE82F05900D92A21708
:1000A000B307D9F7FE0104C01D92A217B307E1F709
:1000B000ED36F40731F70E9415020C947803F8949A
:0200C000FFCF70
:1000C200843008F072C0683008F06FC0423008F027
:1000D2006CC0813001F130F08230B1F1833009F42B
:1000E2004CC00895413059F42AB381E090E002C037
:1000F200880F991F6A95E2F7822B8ABB08952AB36B
:1001020081E090E002C0880F991F6A95E2F780951E
:1001120082238ABB0895413059F427B381E090E0ED
:1001220002C0880F991F6A95E2F7822B87BB089558
:1001320027B381E090E002C0880F991F6A95E2F729
:100142008095822387BB0895413059F424B381E01E
:1001520090E002C0880F991F6A95E2F7822B84BB58
:10016200089524B381E090E002C0880F991F6A9538
:10017200E2F78095822384BB0895413059F421B37C
:1001820081E090E002C0880F991F6A95E2F7822B06
:1001920081BB089521B381E090E002C0880F991FCE
:0C01A2006A95E2F78095822381BB0895E6
:1001AE00843008F072C0683008F06FC0423008F03A
:1001BE006CC0813001F130F08230B1F1833009F43E
:1001CE004CC00895413059F42BB381E090E002C049
:1001DE00880F991F6A95E2F7822B8BBB08952BB37C
:1001EE0081E090E002C0880F991F6A95E2F7809532
:1001FE0082238BBB0895413059F428B381E090E0FF
:10020E0002C0880F991F6A95E2F7822B88BB08956A
:10021E0028B381E090E002C0880F991F6A95E2F73B
:10022E008095822388BB0895413059F425B381E02F
:10023E0090E002C0880F991F6A95E2F7822B85BB6A
:10024E00089525B381E090E002C0880F991F6A954A
:10025E00E2F78095822385BB0895413059F422B38D
:10026E0081E090E002C0880F991F6A95E2F7822B19
:10027E0082BB089522B381E090E002C0880F991FDF
:0C028E006A95E2F78095822382BB0895F8
:10029A000F931F93CF93DF9300D0CDB7DEB71A82A7
:1002AA00198210E018C0E1E0F0E0EC0FFD1FE10F49
:1002BA00F11D97E68902912D11249595959587FD53
:1002CA009395392F330F232F220F220F230F821BCF
:1002DA008083892F1F5F8111E6CF81E000E03AC059
:1002EA00E1E0F0E0EC0FFD1FE00FF11DE0814E2F81
:1002FA0050E04A30510560F5FA01E65DFF4F0C9473
:10030A0083036FE30E94910323C066E00E94910376
:10031A001FC06BE50E9491031BC06FE40E9491030A
:10032A0017C066E60E94910313C06DE60E9491030E
:10033A000FC06DE70E9491030BC067E00E94910312
:10034A0007C06FE70E94910303C06FE60E94910302
:10035A000F5F82E0011720F20F900F90DF91CF918B
:06036A001F910F910895A0
:10037000663031F0673041F1653009F055C048C052
:10038000813069F028F0823089F08330B1F008952F
:1003900085B78E7F85BF85B7826085BF089585B795
:1003A000816085BF85B7826085BF089585B78E7FE0
:1003B00085BF85B78D7F85BF089585B7816085BF6F
:1003C00085B78D7F85BF0895813069F028F0823030
:1003D00089F08330B1F0089585B78B7F85BF85B7ED
:1003E000886085BF089585B7846085BF85B78860BC
:1003F00085BF089585B78B7F85BF85B7877F85BF0C
:10040000089585B7846085BF85B7877F85BF0895C8
:10041000882319F0813029F0089584B78F7B84BF39
:0A042000089584B7806484BF089536
:10042A0060E080E00E94370361E080E00E943703C9
:10043A0081E00E946D0382E00E946D036FE381E018
:10044A000E9491036FE382E00E94910362E083E0DD
:10045A000E948D0363E083E00E948D030E9489035A
:10046A0086E00E94260387E00E94260366E083E076
:10047A000E94B80167E083E00E94B80160E086E468
:10048A0093E00E94620361E084E593E00E946203C4
:02049A00FFCF92
:10049C001F920F920FB60F9211242F933F934F93ED
:1004AC005F936F937F938F939F93AF93BF93EF93D0
:1004BC00FF93E0916000F0916100309721F0099575
:1004CC0086E00E941403FF91EF91BF91AF919F9131
:1004DC008F917F916F915F914F913F912F910F90E1
:0804EC000FBE0F901F90189540
:1004F4001F920F920FB60F9211242F933F934F9395
:100504005F936F937F938F939F93AF93BF93EF9377
:10051400FF93E0916200F0916300309721F0099518
:1005240087E00E941403FF91EF91BF91AF919F91D7
:100534008F917F916F915F914F913F912F910F9088
:080544000FBE0F901F901895E7
:10054C001F920F920FB60F9211242F933F934F933C
:10055C005F936F937F938F939F93AF93BF93EF931F
:10056C00FF93E0916400F0916500309721F00995BC
:10057C0085E00E941403FF91EF91BF91AF919F9181
:10058C008F917F916F915F914F913F912F910F9030
:08059C000FBE0F901F9018958F
:1005A40080916600893159F441E060E080E00E9466
:1005B400940340E061E080E00E949403089541E0E8
:1005C40061E080E00E94940340E060E080E00E94EB
:0405D40094030895EF
:1005D800843098F4813049F028F0823049F0833033
:1005E80051F008958FEF8ABB08958FEF87BB089568
:0C05F8008FEF84BB08958FEF81BB089546
:10060400843078F4813041F028F0823039F083303E
:1006140039F008956BBB089568BB089565BB0895D0
:0406240062BB089518
:100628009BEF980F933068F44AB721E030E0B901A6
:1006380002C0660F771F8A95E2F7CB018095842365
:040648008ABF0895C8
:10064C009BEF980F933060F44BB721E030E0B90189
:10065C0002C0660F771F8A95E2F7CB01842B8BBF04
:02066C000895EF
:10066E00CF93DF93C82FD62F41E00E94610040E068
:0E067E006D2F8C2F0E94D700DF91CF91089531
:10068C008091660089311CF48F5F809366008091A5
:0C069C0066000E944D010E94D2020895E9
:1006A8008091660018161CF4815080936600809132
:0C06B80066000E944D010E94D2020895CD
:1006C400009741F0E62FF0E0EE0FFF1FE05AFF4FD6
:0606D4009183808308956C
:1006DA00CF93C82F6FEF0E94EC0260E08C2F0E942C
:0606EA000203CF91089508
:1006F000EC010E949C030E949B03CE010E949D037B
:06070000CE010E949903E6
:0C070600EE0FFF1F0590F491E02D099408
:080712008FB780688FBF0895C6
:08071A0040E00E946100089517
:060722000E94020308958D
:060728000E94D7000895B5
:04072E000C94000027
:040732000E945F00C2
:02073600089524
:02073800089522
:02073A00089520
:00000001FF
